:100000004BEF30F00000000000EF00F000000000B7
:0A0010000000000000000000F3D71C
:08001C000AAE029E000E120064
:100024000B840BAE1DEF00F0010E036E026A016A31
:0A003400006A0A360232FF0E1200C5
:10003E000B820BAE29EF00F00368026801680068BE
:08004E000A360232FF0E120017
:0E005600026A016A006A086A036A000E12005C
:100064000CB074EF00F00CA21AEF01F00E6A000E4F
:1000740002648BEF00F0F00E0214D8A456EF00F0E7
:10008400023A01380F0B02260138F00B016E0038DA
:100094000F0B01260038F00B006E08380F0B0026FA
:1000A4000838F00B086E0E84D89002BE6FEF00F093
:1000B40008360036013602360E2A02BE6FEF00F013
:1000C40008360036013602360E2A02BE6FEF00F003
:1000D40008360036013602360E2A0E50036410EF3D
:1000E40001F0035E0BBC08AE15EF01F0D880800E62
:1000F40008640030000E002201220222D8A015EF6D
:1001040001F0023201320032034A1AEF01F015EF16
:1001140001F001C002F000C001F008C000F0086A5C
:10012400000E0E860264C2EF00F0F00E0214D8A492
:10013400AAEF00F0023A01380F0B02260138F00B47
:10014400016E00380F0B01260038F00B006E0E8490
:10015400D89002BE6FEF00F00036013602360E2A48
:1001640002BE6FEF00F00036013602360E2A02BEE0
:100174006FEF00F00036013602360E2A6FEF00F002
:1001840001C002F000C001F0006A000E0E960E8855
:100194000264EFEF00F0F00E0214D8A4DAEF00F0DE
:1001A400023A01380F0B02260138F00B016E0E845F
:1001B400D89002BE6FEF00F0013602360E2A02BE5E
:1001C4006FEF00F0013602360E2A02BE6FEF00F028
:1001D400013602360E2A6FEF00F001C002F0016A08
:1001E400000E0E8602641FEF01F0F00E0214D8A474
:1001F400FEEF00F0023A0E84D89002BE6FEF00F0DA
:1002040002360E2A02BE6FEF00F002360E2A02BE3C
:100214006FEF00F002360E2A6FEF00F0010E0C6E45
:10022400FFDE22EF01F0020E0C6EF6DE22EF01F08B
:10023400040E0C6E02DF22EF01F0080E0C6E09DFD3
:020244001200A6
:100246008B929E9614C4C9FF9EB601D0FDD79E968A
:08025600C9CF00F08B821200F9
:10025E008B929E9614C4C9FF076A9EB601D0FDD735
:10026E009E96C9CF04F015C4C9FF9EB601D0FDD726
:10027E009E96C9CF04F016C4C9FF9EB601D0FDD715
:10028E009E96C9CF05F017C4C9FF9EB601D0FDD703
:10029E009E96C9CF06F08B8204C000F005C001F017
:0A02AE0006C002F007C003F01200C2
:1002B8008B929E9614C4C9FF9EB601D0FDD79E9618
:1002C800C9CF02F015C4C9FF9EB601D0FDD79E96CE
:1002D800C9CF02F016C4C9FF9EB601D0FDD79E96BD
:1002E800C9CF03F08B8202C000F003C001F01200F6
:1002F8000B800BAE88EF01F0026A0AAEFF0E026EA9
:0C030800016E006E0A360232FF0E120079
:080314000B6A0B86FF0E1200BC
:10031C00086A096A000E0762036413EF02F00250C8
:10032C0006180A6E075003267E0ED8A0A4EF01F023
:10033C00035ED8B017EF02F0A8EF01F0035ED8A06F
:10034C001BEF02F0028E068E02C00EF001C00BF005
:10035C0000C00DF000500402F4CF0CF00150050267
:10036C00F4CF00F0F3CF08F00402F3500C26F45055
:10037C000822000E00220D500502F3500C26F450FA
:10038C000822000E002202500402F3500826F450FA
:10039C00002202500502016A000E0122F3500026D1
:1003AC00F45001220D500602F3500826F45000229E
:1003BC00026A000E012202220B500602F3500026A4
:1003CC00F4500122000E02220E500602F3500126B8
:1003DC00F450022202BEFBEF01F008360036013663
:1003EC0002360306D8B41BEF02F00EEF02F0D880F1
:1003FC00800E08640030000E002201220222D8A0D8
:10040C000EEF02F0023201320032034A17EF02F013
:10041C000AAE029E000E1DEF02F0010E16DE1DEF5D
:10042C0002F0020E06DE1DEF02F0040EF5DD1200E6
:0E043C00ACB202D00000FCD70CC4ADFF120021
:10044A00E00E04010C15016E01C00EF40150030107
:10045A00AD1921E004010E51000A04E1C00E146F27
:10046A00EDDE17D004010E51200A04E1C20E146F0A
:10047A00E5DE0FD004010E51400A04E1C40E146FE8
:10048A00DDDE07D004010E51600A03E1C60E146FC7
:10049A00D5DE0EC4ADF31F0E04010C15006EA00EBE
:1004AA000010146F0DC415F4000E166F00DF120051
:1004BA00E00E04010C15016E01C013F4015060082E
:1004CA0032E313510301AD1921E004011351000A6B
:1004DA0004E1C00E146FB2DE17D004011351200AD2
:1004EA0004E1C20E146FAADE0FD004011351400AB0
:1004FA0004E1C40E146FA2DE07D004011351600A8E
:10050A0003E1C60E146F9ADE13C4ADF31F0E040185
:10051A000C15006E400E0010146F0DC415F40EC4B5
:10052A0016F4C5DE12D00CC40FF40DC410F40EC4B8
:10053A0011F4220E0401146F0FC415F410C416F43A
:0C054A0011C417F412C418F485DE12006E
:100556000D6A086A0050D8B4000C04180A6E0ABE68
:100566000D1E0B6A04AE02D0041E042A00AE02D091
:10057600001E002A005004100A6E0ABE1FD0045046
:10058600085E003600340836045008260036060E8B
:100596000C6E00340836045000B0085E00A0082631
:1005A60000360C2EF6D700A008260BB015D00DAEDF
:1005B600000C001E002A081E082A000C04AE09D0F2
:1005C60000BE04D00050086E006AF1D7006A002A07
:1005D600000C001E0B2AD3D7082A0450085CD8A4A6
:0E05E600E6D7086A002A00AEE2D7FF0C12002A
:1005F4000134083609360450085E0550D8A0053C7D
:10060400095E003601360F0E0C6E013408360936C9
:10061400045000A006D0085E0550D8A0053C095E31
:1006240005D008260550D8B0053C09260036013609
:100634000C2EEBD700B006D0045008260550D8B0D5
:08064400053C0926000012002C
:10064C00E00E04010C15016E01C013F4015060089A
:10065C0031E313510301AD1921E004011351000AD8
:10066C0004E1C00E146FE9DD17D004011351200A08
:10067C0004E1C20E146FE1DD0FD004011351400AE6
:10068C0004E1C40E146FD9DD07D004011351600AC4
:10069C0003E1C60E146FD1DD13C4ADF31F0E0401BC
:1006AC000C15146F156B166B01DE00C011F401C034
:1006BC0012F416D0200E0401146F0CC415F4000EA5
:1006CC00166F176F186FC5DD00C00DF401C00EF466
:1006DC0002C00FF403C010F40EC411F40FC412F4D2
:0A06EC0011C400F012C401F0120066
:1006F600025006180E6E086A096A0B6A03500764F0
:100706006EEF04F006500A6E068E028E03500B6ED4
:100716000750036E000E0B64BEEF03F00B50075E2E
:10072600D8B45FEF04F0070E07642DEF04F0075E00
:1007360000C008F001C000F002C001F0026A074ED6
:100746005FEF04F0076402EF04F0075E00C008F0F4
:1007560001C000F0016A074E5FEF04F00764E0EFA6
:1007660003F0075E00C008F0006A074E5FEF04F072
:100776000764C7EF03F00AC002F005C001F004C029
:1007860000F0086A8BEF05F0030E0764D2EF03F062
:10079600075E08380F0B086E074E5FEF04F0D8901F
:1007A6000832074E5FEF04F0D8900832074E5FEF2D
:1007B60004F0D89008325FEF04F0030E0764F1EFFF
:1007C60003F0075E08380F0B086E0038F00B08269A
:1007D60000380F0B006E074E5FEF04F0D890003222
:1007E6000832074E5FEF04F0D89000320832074E09
:1007F6005FEF04F0D890003208325FEF04F0030E8A
:10080600076419EF04F0075E08380F0B086E00380E
:10081600F00B082600380F0B006E0138F00B00268F
:1008260001380F0B016E074E5FEF04F0D8900132CE
:1008360000320832074E5FEF04F0D89001320032E2
:100846000832074E5FEF04F0D890013200320832CA
:100856005FEF04F0030E07644AEF04F0075E083802
:100866000F0B086E0038F00B082600380F0B006ED1
:100876000138F00B002601380F0B016E0238F00B21
:10088600012602380F0B026E074E5FEF04F0D89078
:100896000232013200320832074E5FEF04F0D89080
:1008A6000232013200320832074E5FEF04F0D89070
:1008B6000232013200320832096A000E0EAE53EFE0
:1008C60005F0081E001E011E021E082A0022012233
:1008D600022253EF05F00750D8A474EF04F08BEF13
:1008E60005F0096A02C00AF0028E068E0750035C04
:1008F600076ED8B446EF05F0070E076414EF05F04F
:10090600075E0450096E0550046E0650056E066AB1
:10091600074E46EF05F0070E0764E9EF04F0075EA1
:100926000450096E0550046E056A074E46EF05F041
:10093600070E0764C7EF04F0075E0450096E046AE9
:10094600074E46EF05F0070E0764AEEF04F00AC047
:1009560002F08BEF05F0030E0764B9EF04F0075EB3
:1009660009380F0B096E074E46EF05F0D89009328D
:10097600074E46EF05F0D8900932074E46EF05F0D0
:10098600D890093246EF05F0030E0764D8EF04F05D
:10099600075E09380F0B096E0438F00B0926043878
:1009A6000F0B046E074E46EF05F0D890043209325D
:1009B600074E46EF05F0D89004320932074E46EF4F
:1009C60005F0D8900432093246EF05F0030E0764AD
:1009D60000EF05F0075E09380F0B096E0438F00BBF
:1009E600092604380F0B046E0538F00B042605386B
:1009F6000F0B056E074E46EF05F0D8900532043210
:100A06000932074E46EF05F0D89005320432093216
:100A1600074E46EF05F0D89005320432093246EF0C
:100A260005F0030E076431EF05F0075E09380F0B7A
:100A3600096E0438F00B092604380F0B046E0538CE
:100A4600F00B042605380F0B056E0638F00B05264D
:100A560006380F0B066E074E46EF05F0D8900632A5
:100A6600053204320932074E46EF05F0D8900632B9
:100A7600053204320932074E46EF05F0D8900632A9
:100A8600053204320932086A000E0EAE53EF05F045
:100A9600091E041E051E061E092A04220522062218
:100AA6000950082604500022055001220650022251
:100AB6000EBE6AEF05F0D8A079EF05F002320132DA
:100AC60000320832033E79EF05F085EF05F0D8B025
:100AD6007FEF05F0000E081E001E011E021E082AEA
:100AE6000022012202220A7E7FEF05F0010E0C6E23
:100AF60032EC00F08DEF05F0020E0C6E32EC00F0D9
:100B06008DEF05F0040E0C6E1FEC00F08DEF05F076
:060B1600000E0C6E12003F
:100B1C008B929E960CC4C9FF9EB601D0FDD79E96B3
:100B2C00C9CF02F00FC400F010C401F0010E040193
:100B3C000F5F000E105B005001100FE00DC4E9FFB9
:100B4C000EC4EAFFEECFC9FF0D4B0E2B9EB601D0A3
:0E0B5C00FDD79E96C9CF02F0E5D78B8212001E
:100B6A00086A080E0C6E003408360450085ED8B0C5
:0E0B7A0002D00826D89000360C2EF5D71200B7
:100B880006C400F00032009E0032009E0032009E33
:100B98000032009E870E0024F66E650EF76E000E7A
:100BA800F722000EF86E000EF8220900F5CF00F0CB
:100BB80007C4E1FF08C4E2FF00C0E6FF010E04011C
:100BC8000725E16E000E0821E26E0F0E0615006E75
:100BD800870E0024F66E650EF76E000EF722000EE3
:100BE800F86E000EF8220900F5CF00F000C0E6FF0D
:100BF800020E0725E16E000E0821E26EE66A120079
:100C080004010651390806E3300E065D03E3010EC0
:080C1800006E01D0006A120019
:100C20000A6A0350D8A40A800750D8A40A820A503E
:100C3000D8B473EF06F0030AD8B42CEF06F00AB06C
:100C400027EF06F006AE71EF06F06FEF06F002AE8A
:100C50006FEF06F071EF06F00250800B0A6E029EF5
:100C60000650800B069E0A18D8B43DEF06F00A50D5
:100C7000D8B46FEF06F071EF06F00750035CD8B4FC
:100C800047EF06F0D8A063EF06F069EF06F00650D4
:100C9000025CD8B451EF06F0D8A063EF06F069EF1C
:100CA00006F00550015CD8B45BEF06F0D8A063EF06
:100CB00006F069EF06F00450005CD8B473EF06F05C
:100CC000D8B069EF06F00A52D8B471EF06F06FEFB2
:100CD00006F00A52D8B46FEF06F071EF06F0D88034
:0E0CE0001200D8901200D880D88412001200A2
:100CEE001C0E04010C6FABDC01A634D01C0E0401EB
:100CFE000C6F000E0D6F25EC02F0420E04010C6F0E
:100D0E009EDC00C006F401C007F41A0E04010C6F3D
:100D1E0096DC01A40CD0440E04010C6F150E0D6F61
:100D2E00000E0E6F5DEC02F0040106810BD0040183
:100D3E00440E0C6F120E0D6F000E0E6F5DEC02F076
:100D4E0004010691420E0C6F06C40DF407C40EF496
:100D5E005DEC02F01A0E04010C6F71DC00C026F27D
:100D6E0001C027F201A0F6D7D40E0401146F23ECB4
:100D7E0001F01E0E04010C6F62DC00C026F201C0F1
:080D8E0027F200B2F6D71200B3
:100D96000401096B06C4E9FF07C4EAFFEECF08F4B5
:100DA6000851000A0FE008C40CF41EEC02F004011E
:100DB600092B09510625E96E000E0721EA6EEECFD2
:060DC60008F4EED7120054
:100DCC000450000A12E10550000A0FE10650000A17
:100DDC000CE10750000A09E1FF0E006EFF0E016ED8
:100DEC007F0E026EFF0E036EA8D0086A096A0750C8
:100DFC00D8B491EF07F00350D8B496EF07F0025037
:100E0C0006180A6E028E068E0E6A02C008F001C029
:100E1C000CF000C00DF004500D5E0550D8A0053C40
:100E2C000C5E0650D8A0063C085E086A0C6A0D6A77
:100E3C00D8A028EF07F0D8900232013200320832E5
:100E4C00010E0E6E0750035ED8A035EF07F07E0E34
:100E5C000E240326D8B09BEF07F03BEF07F07E0E75
:100E6C000E240326D8A0A0EF07F0180E0B6E0D363B
:100E7C000C3608360036013602360E360450005E4B
:100E8C000550D8A0053C015E0650D8A0063C025E79
:100E9C0006340E120EA056EF07F00D8061EF07F02E
:100EAC00045000260550D8B0053C01260650D8B099
:100EBC00062802260D900B2E3DEF07F087EF07F06A
:100ECC00D8900036013602360E360450005E0550BE
:100EDC00D8A0053C015E0650D8A0063C025E063444
:100EEC000E10010B0D26D8B00C2AD8B4082AD8A4A1
:100EFC0087EF07F008320C320D32032AD8B49BEF7F
:100F0C0007F00AAE089E0850026E0C50016E0D5090
:100F1C00006EA3EF07F0010E8AEC01F0A3EF07F0CF
:100F2C00020E2BEC00F0A3EF07F0040E1FEC00F008
:0C0F3C00A3EF07F0080E12EC00F012000A
:100F4800E00E04010615016E01C008F4015003010A
:100F5800AD1925E004010851000A05E1C00E146F1F
:100F680023EC01F01AD004010851200A05E1C20E51
:100F7800146F23EC01F011D004010851400A05E177
:100F8800C40E146F23EC01F008D004010851600A64
:100F980004E1C60E146F23EC01F008C4ADF31F0E74
:100FA80004010615006E800E0010146F07C415F4B6
:0A0FB800000E166F5CEC01F0120051
:100FC2000B6A0C6A086A0350D8B465EF08F002C0D5
:100FD2000AF0028E9E0E035E03AE55EF08F0036C1C
:100FE200080E035CD8A022EF08F0036E083600C09A
:100FF20008F001C000F002C001F0026A080E035CB2
:10100200D8A022EF08F0036E083600C008F001C035
:1010120000F0016A080E035CD8A022EF08F0036E0C
:10102200083600C008F0006A080E035CD8A022EF60
:1010320008F0036E0836086A0350D8A4D8902EEF41
:1010420008F00350D8B42EEF08F0D89002320132E3
:1010520000320832032E26EF08F00BBC08A03FEF47
:1010620008F0D8A03FEF08F0082AD8B4002AD8B474
:10107200012AD8B4022A02BE69EF08F00AAE65EF6F
:1010820008F0021E011E001E081E082AD8B4002AFB
:10109200D8B4012AD8B4022A65EF08F0026A016ABC
:1010A200006A086A65EF08F00B800BAE70EF08F07B
:1010B200026A0AAE70EF08F0026E016E006E086EF0
:1010C2000A36023270EF08F00C6A000E71EF08F077
:1010D200010E0C6E000E7CEC01F071EF08F0FF0EB9
:1010E2000250036E0150026E0050016E0850006EF5
:0210F2001200EA
:1010F40003500718D8A48EEF08F002500618D8A49D
:101104008EEF08F001500518D8A48EEF08F00050B7
:0E1114000418D8B4D8841200D8941200120027
:101122000050086E0150006E0250016E0350026EB4
:10113200036A0B6A0C6A9E0E036E0A6A020E0C6E3A
:0611420032EC00F0120087
:101148000B6A0A6A096A086A0E6A03340836045088
:10115800085E0550D8A0053C095E0650D8A0063C9C
:101168000A5E0750D8A0073C0B5EE86AD8A0010EBB
:101178000E5E0336070E0C6E0334083609360A363F
:101188000B360E36045003A012D0085E0550D8A0C6
:10119800053C095E0650D8A0063C0A5E0750D8A058
:1011A800073C0B5EE86AD8A0010E0E5E11D0082637
:1011B8000550D8B0053C09260650D8B0063C0A268A
:1011C8000750D8B0073C0B26E86AD8B0010E0E26A7
:1011D80003360C2ED1D70234083609360A360B36B8
:1011E8000E36045003A012D0085E0550D8A0053C66
:1011F800095E0650D8A0063C0A5E0750D8A0073CF6
:101208000B5EE86AD8A0010E0E5E11D008260550C4
:10121800D8B0053C09260650D8B0063C0A26075027
:10122800D8B0073C0B26E86AD8B0010E0E26023665
:10123800070E0C6E0234083609360A360B360E369F
:10124800045002A012D0085E0550D8A0053C095EE3
:101258000650D8A0063C0A5E0750D8A0073C0B5E93
:10126800E86AD8A0010E0E5E11D008260550D8B045
:10127800053C09260650D8B0063C0A260750D8B0C7
:10128800073C0B26E86AD8B0010E0E2602360C2E53
:10129800D1D70134083609360A360B360E360450D3
:1012A80002A012D0085E0550D8A0053C095E065081
:1012B800D8A0063C0A5E0750D8A0073C0B5EE86A37
:1012C800D8A0010E0E5E11D008260550D8B0053CF6
:1012D80009260650D8B0063C0A260750D8B0073C65
:1012E8000B26E86AD8B0010E0E260136070E0C6EE2
:1012F8000134083609360A360B360E36045001A07A
:1013080012D0085E0550D8A0053C095E0650D8A04A
:10131800063C0A5E0750D8A0073C0B5EE86AD8A0D6
:10132800010E0E5E11D008260550D8B0053C0926DE
:101338000650D8B0063C0A260750D8B0073C0B2602
:10134800E86AD8B0010E0E2601360C2ED1D700342B
:10135800083609360A360B360E36045001A012D06C
:10136800085E0550D8A0053C095E0650D8A0063C8A
:101378000A5E0750D8A0073C0B5EE86AD8A0010EA9
:101388000E5E11D008260550D8B0053C0926065037
:10139800D8B0063C0A260750D8B0073C0B26E86AA6
:1013A800D8B0010E0E260036070E0C6E0034083633
:1013B80009360A360B360E36045000A012D0085EE5
:1013C8000550D8A0053C095E0650D8A0063C0A5E28
:1013D8000750D8A0073C0B5EE86AD8A0010E0E5E45
:1013E80011D008260550D8B0053C09260650D8B0BB
:1013F800063C0A260750D8B0073C0B26E86AD8B046
:10140800010E0E2600360C2ED1D700B00ED0045097
:1014180008260550D8B0053C09260650D8B0063C29
:0C1428000A260750D8B0073C0B26120023
:101434000B6A0C6A0A6A086A0350D8B4A2EF0AF06D
:10144400028E9E0E035E03BE2DEF0AF0D8B42DEF7C
:101454000AF092EF0AF0036C080E035CD8A05FEF69
:101464000AF0036E083600C008F001C000F002C0A4
:1014740001F0026A080E035CD8A05FEF0AF0036E65
:10148400083600C008F001C000F0016A080E035CD1
:10149400D8A05FEF0AF0036E083600C008F0006AB7
:1014A400080E035CD8A05FEF0AF0036E0836086AE2
:1014B4000350D8A4D8906BEF0AF00350D8B46BEF64
:1014C4000AF0D8900232013200320832032E63EF60
:1014D4000AF00BBC08A07CEF0AF0D8A07CEF0AF05D
:1014E400082AD8B4002AD8B4012AD8B4022A02BEE1
:1014F400A6EF0AF00AAEA2EF0AF0021E011E001EB9
:10150400081E082AD8B4002AD8B4012AD8B4022A5A
:10151400A2EF0AF0026A016A006A086AA2EF0AF0FE
:101524000B800BAEACEF0AF0026A0AAEACEF0AF025
:10153400026E016E006E086E0A360232ACEF0AF0DB
:10154400000E0C6AADEF0AF0010E0C6E7CEC01F09B
:10155400ADEF0AF0FF0E0250036E0150026E005010
:08156400016E0850006E120038
:10156C00800E04010619006E800E000A005CD8B0D3
:10157C006DD106510008016E01C006F4800E0118F1
:10158C00006E800E6E0A005CD8A0C0D0640E046E93
:10159C0006C400F0ABEC02F0120E0024056E000E37
:1015AC0000BEFF0E066E000E062205C000F006C03F
:1015BC0001F0000E06BEFF0E026E036E00360090A8
:1015CC0001360236033600360090013602360336F9
:1015DC00850E0024F66E640E0120F76E000E0220BC
:1015EC00F86E0900F5CF07F40900F5CF08F40900EF
:1015FC00F5CF09F40900F5CF0AF4640E046E06C4A5
:10160C0000F0ABEC02F008C000F00A0E046EABEC7C
:10161C0002F0090E0024056E000E00BEFF0E066ED1
:10162C00000E062205C000F006C001F0000E06BE3A
:10163C00FF0E026E036E0036009001360236033642
:10164C0000360090013602360336850E0024F66E05
:10165C00640E0120F76E000E0220F86E0900F5CF23
:10166C0000F00900F5CF01F00900F5CF02F00900F8
:10167C00F5CF03F007C404F008C405F009C406F064
:10168C000AC407F08EEC01F000C007F401C008F4A6
:10169C0002C009F403C00AF40A0E046E06C400F07A
:1016AC00ABEC02F008C000F000C001F0000E00BE70
:1016BC00FF0E026E036E046E013601900236033685
:1016CC00043601360190023603360436850E0124A9
:1016DC00F66E640E0220F76E000E0320F86E090001
:1016EC00F5CF00F00900F5CF01F00900F5CF02F0BD
:1016FC000900F5CF03F007C404F008C405F009C4D1
:10170C0006F00AC407F08EEC01F007D2800E0A0A2C
:10171C00006E800E0619005C71E20A0E046E06C49F
:10172C0000F0ABEC02F0090E0024056E000E00BEBA
:10173C00FF0E066E000E062205C000F006C001F07A
:10174C00000E06BEFF0E026E036E003600900136D0
:10175C000236033600360090013602360336850E0B
:10176C000024F66E640E0120F76E000E0220F86E57
:10177C000900F5CF07F40900F5CF08F40900F5CFFF
:10178C0009F40900F5CF0AF40A0E046E06C400F041
:10179C00ABEC02F008C000F000C001F0000E00BE7F
:1017AC00FF0E026E036E046E013601900236033694
:1017BC00043601360190023603360436850E0124B8
:1017CC00F66E640E0220F76E000E0320F86E090010
:1017DC00F5CF00F00900F5CF01F00900F5CF02F0CC
:1017EC000900F5CF03F007C404F008C405F009C4E0
:1017FC0006F00AC407F08EEC01F08FD106C400F09D
:10180C00000E06BFFF0E016E026E036E00360090D6
:10181C0001360236033600360090013602360336A6
:10182C00850E0024F66E640E0120F76E000E022069
:10183C00F86E0900F5CF00F00900F5CF01F00900B2
:10184C00F5CF02F00900F5CF03F067D1800E061931
:10185C00006E800E6E0A005CD8A0C0D0640E046EC0
:10186C0006C400F0ABEC02F0120E0024056E000E64
:10187C0000BEFF0E066E000E062205C000F006C06C
:10188C0001F0000E06BEFF0E026E036E00360090D5
:10189C000136023603360036009001360236033626
:1018AC00B90E0024F66E640E0120F76E000E0220B5
:1018BC00F86E0900F5CF07F40900F5CF08F409001C
:1018CC00F5CF09F40900F5CF0AF4640E046E06C4D2
:1018DC0000F0ABEC02F008C000F00A0E046EABECAA
:1018EC0002F0090E0024056E000E00BEFF0E066EFF
:1018FC00000E062205C000F006C001F0000E06BE68
:10190C00FF0E026E036E003600900136023603366F
:10191C0000360090013602360336B90E0024F66EFE
:10192C00640E0120F76E000E0220F86E0900F5CF50
:10193C0000F00900F5CF01F00900F5CF02F0090025
:10194C00F5CF03F007C404F008C405F009C406F091
:10195C000AC407F08EEC01F000C007F401C008F4D3
:10196C0002C009F403C00AF40A0E046E06C400F0A7
:10197C00ABEC02F008C000F000C001F0000E00BE9D
:10198C00FF0E026E036E046E0136019002360336B2
:10199C00043601360190023603360436B90E0124A2
:1019AC00F66E640E0220F76E000E0320F86E09002E
:1019BC00F5CF00F00900F5CF01F00900F5CF02F0EA
:1019CC000900F5CF03F007C404F008C405F009C4FE
:1019DC0006F00AC407F08EEC01F09FD0800E0A0AC4
:1019EC00006E800E0619005C71E20A0E046E06C4CD
:1019FC0000F0ABEC02F0090E0024056E000E00BEE8
:101A0C00FF0E066E000E062205C000F006C001F0A7
:101A1C00000E06BEFF0E026E036E003600900136FD
:101A2C000236033600360090013602360336B90E04
:101A3C000024F66E640E0120F76E000E0220F86E84
:101A4C000900F5CF07F40900F5CF08F40900F5CF2C
:101A5C0009F40900F5CF0AF40A0E046E06C400F06E
:101A6C00ABEC02F008C000F000C001F0000E00BEAC
:101A7C00FF0E026E036E046E0136019002360336C1
:101A8C00043601360190023603360436B90E0124B1
:101A9C00F66E640E0220F76E000E0320F86E09003D
:101AAC00F5CF00F00900F5CF01F00900F5CF02F0F9
:101ABC000900F5CF03F007C404F008C405F009C40D
:101ACC0006F00AC407F08EEC01F027D006C400F033
:101ADC00000E06BFFF0E016E026E036E0036009004
:101AEC0001360236033600360090013602360336D4
:101AFC00B90E0024F66E640E0120F76E000E022063
:101B0C00F86E0900F5CF00F00900F5CF01F00900DF
:0C1B1C00F5CF02F00900F5CF03F0120035
:101B28000450000A08E10550000A05E1FF0E006EA6
:101B38007F0E016E58D00D6A096A086A01500010BC
:101B4800D8B4000C015005180A6E0ABE0D1E0B6AA7
:101B580005AE05D0041E051E042AD8B4052A01AE18
:101B680005D0001E011E002AD8B4012A0150051014
:101B78000A6E0ABE10D0FAEC02F00BB020D00DAEFF
:101B8800000C001E011E002AD8B4012A081E091ED6
:101B9800082AD8B4092A000C05AE0DD001BE07D01A
:101BA8000150096E0050086E016A006AE8D7016AA0
:101BB800006A002A000C011E001E0B2ADDD7082A25
:101BC800D8B4092A0450085CD8A4D9D70550095CB0
:101BD800D8A4D5D7096A086A002AD8B4012A01AE60
:081BE800CED70000FF0C120033
:101BF0000B6A0A6A096A00500402F4CF09F0F3CFB5
:101C000008F001500502F4CF0BF0F3CF0AF00050BA
:101C10000502F3500926F4500A22E86A0B2201500B
:101C20000402F3500926F4500A22E86A0B2208C085
:101C300000F009C001F00AC002F00BC003F012006E
:081C4000067E7BEC03F01200AC
:101C48006E0E0401065DD8A0CAD0640E046E06C4E8
:101C580000F0B5EC05F0120E0024056E066A000EC1
:101C6800062205C000F006C001F0000E06BEFF0EF9
:101C7800026E036E003600900136023603360036D7
:101C88000090013602360336850E0024F66E640E87
:101C98000120F76E000E0220F86E0900F5CF00F063
:101CA8000900F5CF01F00900F5CF02F00900F5CFE2
:101CB80003F0000E046E000E056E000E066E7E0E1A
:101CC800076E8EEC01F000C007F401C008F402C0F2
:101CD80009F403C00AF4640E046E06C400F0B5ECFF
:101CE80005F008C000F00A0E046EB5EC05F0090E08
:101CF8000024056E066A000E062205C000F006C024
:101D080001F0000E06BEFF0E026E036E0036009054
:101D180001360236033600360090013602360336A5
:101D2800850E0024F66E640E0120F76E000E022068
:101D3800F86E0900F5CF00F00900F5CF01F00900B1
:101D4800F5CF02F00900F5CF03F007C404F008C48A
:101D580005F009C406F00AC407F08EEC01F000C0D3
:101D680007F401C008F402C009F403C00AF40A0E1B
:101D7800046E06C400F0B5EC05F008C000F000C021
:101D880001F0000E026E036E046E013601900236F9
:101D98000336043601360190023603360436850EC2
:101DA8000124F66E640E0220F76E000E0320F86E12
:101DB8000900F5CF00F00900F5CF01F00900F5CFD3
:101DC80002F00900F5CF03F007C404F008C405F0D9
:101DD80009C406F00AC407F08EEC01F0B1D0065130
:101DE8000A08D8B07ED00A0E046E06C400F0B5EC1E
:101DF80005F0090E0024056E066A000E062205C0CD
:101E080000F006C001F0000E06BEFF0E026E036E63
:101E1800003600900136023603360036009001364F
:101E280002360336850E0024F66E640E0120F76E26
:101E3800000E0220F86E0900F5CF00F00900F5CF7A
:101E480001F00900F5CF02F00900F5CF03F0000E0C
:101E5800046E000E056E000E066E7E0E076E8EEC8A
:101E680001F000C007F401C008F402C009F403C07F
:101E78000AF40A0E046E06C400F0B5EC05F008C0BA
:101E880000F000C001F0000E026E036E046E013611
:101E980001900236033604360136019002360336C5
:101EA8000436850E0124F66E640E0220F76E000ECD
:101EB8000320F86E0900F5CF00F00900F5CF01F016
:101EC8000900F5CF02F00900F5CF03F007C404F0CC
:101ED80008C405F009C406F00AC407F08EEC01F046
:101EE8002FD006C400F0000E016E026E036E00369D
:101EF800009001360236033600360090013602366D
:101F08000336850E0024F66E640E0120F76E000E6F
:101F18000220F86E0900F5CF00F00900F5CF01F0B6
:101F28000900F5CF02F00900F5CF03F0000E046EAA
:101F3800000E056E000E066E7E0E076E8EEC01F02A
:021F4800120085
:101F4A00320E04010B6F06A302D02A0E0B6F06A5F0
:101F5A0002D02E0E0B6F0BC40CF407C40DF408C488
:101F6A000EF409C40FF40AC410F48EEC05F0120042
:101F7A008B929E9606C4C9FF9EB601D0FDD79E9647
:101F8A00C9CF02F009C400F00AC401F0010E04012D
:101F9A00095F000E0A5B005001100FE0C96A9EB685
:101FAA0001D0FDD704019E9607C4E1FF08C4E2FFF1
:0E1FBA00C9CFE6FF074B082BE5D78B8212003C
:101FC800086A096A100E0C6E013408360936045086
:101FD800085E0550D8A0053C095ED8B007D004506B
:101FE80008260550D8B0053C0926D8900036013699
:061FF8000C2EEAD71200D6
:081FFE00DEC300F0003A1200FE
:102006001E0E04010C6F26EC03F000B2F9D78C0EFD
:1020160004010C6F0D6B0E6B5DEC02F0040E0401F7
:10202600066FDEC307F4DFC308F4E0C309F4E1C3B7
:102036000AF488DF0301E25318E004010C6B0D6B10
:102046000E6B5DEC02F0020E04010C6FE0C30DF4A2
:10205600E1C30EF45DEC02F01E0E04010C6F26ECDB
:0C20660003F000B2F9D777EC06F012008E
:10207200300E0301E36FDE51020A02E1280EE36F24
:10208200DE51040A02E12C0EE36FE3C306F4DFC360
:1020920007F4E0C308F4E1C309F4E2C30AF46CDF15
:0220A20012002A
:1020A400900E04010C6F520E0D6F060E0E6F5DEC58
:1020B40002F08E0E04010C6F520E0D6F060E0E6FA1
:1020C4005DEC02F0010E0401066FDEC307F4DFC30A
:0E20D40008F4E0C309F4E1C30AF435DF12009A
:1020E200000E0401066F010E076FCBEC06F0030130
:1020F200E76BE86BE56BE66BE151E65D02E1E0510F
:10210200E55D31E2E551DE25E96EE651DF21EA6E59
:10211200EECF06F4E20E0401076F030E086FC4EC63
:1021220005F0E20E066F030E076FCBEC06F0FB0E16
:10213200066F000E076FCBEC06F00301E74BE82BAE
:10214200000EE81902E1100EE71909E1E76BE86BEE
:10215200FD0E0401066F000E076FCBEC06F00301C3
:10216200E54BE62BC9D7150E0401066F010E076F6A
:06217200CBEC06F01200A8
:102178000301E26B050EE25D0AE2E251E025E16E41
:10218800000EE121E26E200EE66EE22BF3D7E2515B
:10219800E025E16E000EE121E26EE66AE207E25117
:1021A800E025E36F000EE121E46F0A0E046E000ED5
:1021B800056EDEC300F0DFC301F002DF08C000F0E7
:1021C80009C001F0300E0026E3C3E1FFE4C3E2FFDB
:1021D80000C0E6FF0A0E046E000E056EDEC300F0B6
:1021E800DFC301F0EDDE00C0DEF301C0DFF3000E57
:1021F800011802E1000E001801E102D0E207CFD772
:022208001200C2
:10220A000301FE6BFF6BF26BF36BE0C300F0E1C3FB
:10221A0001F0E2C302F0010EE027000EE123E223FF
:10222A0000C0F6FF01C0F7FF02C0F8FF0900F5CFB2
:10223A0000F000C0EFF30052D8B42FEF21F0EF51B5
:10224A00250A0BE0DEC3E1FFDFC3E2FFEFC3E6FFCF
:10225A00DE4BDF2BFE4BFF2BD8D7F06BF16BF26B0B
:10226A00F36B23D0F287010EE027000EE123E2236D
:10227A0059D0F281010EE027000EE123E22352D069
:10228A00F283010EE027000EE123E2234BD0F3870D
:10229A00010EE027000EE123E22344D0F285010E6D
:1022AA00E027000EE123E2233DD0E0C3F6FFE1C3BD
:1022BA00F7FFE2C3F8FF0900F5CF01F001502D0A3C
:1022CA00D1E0E0C3F6FFE1C3F7FFE2C3F8FF09007C
:1022DA00F5CF01F00150200ACCE0E0C3F6FFE1C3DC
:1022EA00F7FFE2C3F8FF0900F5CF01F001502B0A0E
:1022FA00C7E0E0C3F6FFE1C3F7FFE2C3F8FF090056
:10230A00F5CF01F00150230AC2E0E0C3F6FFE1C3B2
:10231A00F7FFE2C3F8FF0900F5CF01F00150300AD8
:10232A00BDE001D09ED7F2A301D0F291F2A701D06D
:10233A00F295E0C3F6FFE1C3F7FFE2C3F8FF090035
:10234A00F5CF00F0000E016E00C006F404EC06F0B2
:10235A00005237E00301F06BF16B0301F0C300F0A8
:10236A00F1C301F00A0E046E000E056E3CDCE0C3F8
:10237A00F6FFE1C3F7FFE2C3F8FF0900F5CF02F069
:10238A0002500024F06F000E0120F16F300EF05F52
:10239A00000EF15B010EE027000EE123E223E0C309
:1023AA00F6FFE1C3F7FFE2C3F8FF0900F5CF00F03B
:1023BA00000E016E00C006F404EC06F00052CDE1F6
:1023CA0034D0E0C3F6FFE1C3F7FFE2C3F8FF090028
:1023DA00F5CF01F001502A0A28E1E3C3E9FFE4C37B
:1023EA00EAFFEECF00F0EECF01F000C0E9FF01C036
:1023FA00EAFFEECFF0F3EECFF1F3E3C3E9FFE4C374
:10240A00EAFF020EEE24006E000EEE20016EE3C318
:10241A00E1FFE4C3E2FF00C0E6FF01C0E6FF010EF0
:10242A000301E027000EE123E223E0C3F6FFE1C344
:10243A00F7FFE2C3F8FF0900F5CF01F001502E0AB9
:10244A0072E10301010EE027000EE123E223E0C35B
:10245A00F6FFE1C3F7FFE2C3F8FF0900F5CF01F089
:10246A0001502A0A28E1E3C3E9FFE4C3EAFFEECFF9
:10247A0000F0EECF01F000C0E9FF01C0EAFFEECFA5
:10248A00EDF3EECFEEF3E3C3E9FFE4C3EAFF020E96
:10249A00EE24006E000EEE20016EE3C3E1FFE4C3FA
:1024AA00E2FF00C0E6FF01C0E6FF010EE027000ED2
:1024BA00E123E22337D0ED6BEE6BE0C3F6FFE1C315
:1024CA00F7FFE2C3F8FF0900F5CF00F0000E016E36
:1024DA0000C006F404EC06F0005224E0EDC300F05C
:1024EA00EEC301F00A0E046E000E056EF8EC0DF054
:1024FA00E0C3F6FFE1C3F7FFE2C3F8FF0900F5CF37
:10250A0002F0025000240301ED6F000E0120EE6F6D
:10251A00300EED5F000EEE5B010EE027000EE123A8
:10252A00E223CBD704D00301ED6BEE6BF3890301F1
:10253A00E0C300F0E1C301F0E2C302F0010EE027BC
:10254A00000EE123E22300C0F6FF01C0F7FF02C03C
:10255A00F8FF0900F5CFEFF3F9D0FEC300F0FFC38F
:10256A0001F033EF21F0F289E2D7F3852ED1F28B15
:10257A00F3812BD1F38329D1F28D27D126D1F28B86
:10258A00F28F23D1E3C3E9FFE4C3EAFFEECF00F001
:10259A00EECF01F000C0E9FF01C0EAFFEECFFAF387
:1025AA00EECFFBF3E3C3E9FFE4C3EAFF020EEE2436
:1025BA00006E000EEE20016EE3C3E1FFE4C3E2FF0A
:1025CA0000C0E6FF01C0E6FF000EFB1902E1000EA3
:1025DA00FA1904E1F40EFA6F000EFB6FFC6BFD6B47
:1025EA00FC51FA25E96EFD51FB21EA6EEE520BE031
:1025FA00010EFC25006E000EFD21016E00C0FCF3E9
:10260A0001C0FDF3EDD7ED51EE110AE0FD51EE5D8B
:10261A0002E1FC51ED5D04E2EDC3FCF3EEC3FDF310
:10262A00F151FD5D02E1F051FC5D05E2FC51F05F04
:10263A00FD51F15B02D0F06BF16BF2B716D0F0C32B
:10264A0000F0F1C301F0010EF05F000EF15B0050E3
:10265A0001100BE0DEC3E1FFDFC3E2FF200EE66EEE
:10266A00DE4BDF2BFE4BFF2BEAD7FCC302F0FDC388
:10267A0003F0010EFC5D006E000EFD59016E00C0F4
:10268A00FCF301C0FDF30250031019E0FAC3E9FF9D
:10269A00FBC3EAFFDEC3E1FFDFC3E2FFEECFE6FFE3
:1026AA00DE4BDF2B010EFA25006E000EFB21016EB8
:1026BA0000C0FAF301C0FBF3FE4BFF2BD6D7F2A7FB
:1026CA0016D0F0C300F0F1C301F0010EF05F000E66
:1026DA00F15B005001100BE0DEC3E1FFDFC3E2FF54
:1026EA00200EE66EDE4BDF2BFE4BFF2BEAD78DD595
:1026FA00E3C3E9FFE4C3EAFFEECF00F0EECF01F057
:10270A0000C0E9FF01C0EAFFEECFEFF3E3C3E9FF40
:10271A00E4C3EAFF020EEE24006E000EEE20016E04
:10272A00E3C3E1FFE4C3E2FF00C0E6FF01C0E6FF46
:10273A00EF0EFA6F030EFB6F010EFC6F000EFD6FBA
:10274A0062D7C00EF213000EF3133FD0EF51000A06
:10275A00D8B403D7EF516C0AD8B405D7EF514C0A55
:10276A00D8B401D7EF51660AD8B4FFD6EF51450A5B
:10277A00D8B4FDD6EF51650AD8B4FAD6EF51670A34
:10278A00D8B4F8D6EF516F0AD8B4F6D6EF51640A26
:10279A00D8B4F4D6EF51690AD8B4F0D6EF51700A1A
:1027AA00D8B4EDD6EF51580AD8B4E9D6EF51780A21
:1027BA00D8B4E6D6EF51730AD8B4E4D6EF51630A17
:1027CA0097E0EF51750ABDE0B3D7000EF215006E1F
:1027DA00F351070B016E00500110D8B4D1EF1CF071
:1027EA00F3A904D0060EED6F000EEE6FE3C3E9FF06
:1027FA00E4C3EAFFEECF00F0EECF01F000C0E9FF3C
:10280A0001C0EAFFEECFF4F3EECFF5F3EECFF6F325
:10281A00EECFF7F3E3C3E9FFE4C3EAFF040EEE24C5
:10282A00006E000EEE20016EE3C3E1FFE4C3E2FF97
:10283A0000C0E6FF01C0E6FF046A056A066A076A85
:10284A00F4C300F0F5C301F0F6C302F0F7C303F0D6
:10285A0010EC06F0010ED8B0000E006E005205E032
:10286A00F67F030EF213000EF313F86BF96BF4C341
:10287A0000F0F5C301F0F6C302F0F7C303F0046AEF
:10288A00056A066A076A7AEC08F0000ED8A4010EF7
:10289A00006E0052D8B48DD0F7C300F0016A026A04
:1028AA00036AFF0E0016000E01167E0E005E000E71
:1028BA00015A00C0F8F301C0F9F3010E005E000EE0
:1028CA00015A00C0F8F301C0F9F3030E046E000EBA
:1028DA00056EF8EC0DF000C0F8F301C0F9F30A0E2A
:1028EA00046E000E056E94EC0DF000C0F8F301C002
:1028FA00F9F3800E0118026E800E025C02E1000EEE
:10290A00005C05E2010E0301F85F000EF95B0301AA
:10291A00F85100080401066FB6EC0AF0F4C304F09B
:10292A00F5C305F0F6C306F0F7C307F08EEC01F025
:10293A0000C0FAF301C0FBF302C0FCF303C0FDF3CD
:10294A00000E046E000E056E000E066E7F0E076EF8
:10295A00FAC300F0FBC301F0FCC302F0FDC303F0AD
:10296A0010EC06F0010ED8B0000E006E005206E020
:10297A00010E0301F85F000EF95B1BD0000E046E16
:10298A00000E056E200E066E820E076EFAC300F068
:10299A00FBC301F0FCC302F0FDC303F010EC06F028
:1029AA00000ED8B0010E006E005203E00301F84B8E
:1029BA00F92B0301800E006E800EF919005C02E10A
:1029CA00F851000803E3010EEF6F02D0F8C3EFF3EA
:1029DA00F3B118D0F3A315D0800EF919006E7F0E4B
:1029EA00005C02E1FC0EF85D0BE3800EF919006E43
:1029FA00800EEE19005C02E1ED51F85D01E201D0B2
:102A0A0001D0F3D3ED51EE1106E0F3A304D0010E89
:102A1A00ED5F000EEE5B000E006EEE51005C02E10F
:102A2A00ED51080803E2080EEF6F02D0EDC3EFF391
:102A3A00F4C300F0F5C301F0F6C302F0F7C303F0E4
:102A4A00046A056A066A076A7AEC08F0000ED8A4D6
:102A5A00010E006E0052D8B44CD1F8C306F4B6EC9D
:102A6A000AF000C004F001C005F002C006F003C07D
:102A7A0007F0F4C300F0F5C301F0F6C302F0F7C3A0
:102A8A0003F0E6EC06F000C0F4F301C0F5F302C06F
:102A9A00F6F303C0F7F30301EF5100080401066FD0
:102AAA00B6EC0AF000C004F001C005F002C006F05E
:102ABA0003C007F0F4C300F0F5C301F0F6C302F057
:102ACA00F7C303F0E6EC06F000C000F401C001F41D
:102ADA0002C002F403C003F400C4F4F301C4F5F322
:102AEA0002C4F6F303C4F7F300C400F001C401F012
:102AFA0002C402F003C403F01AEC0AF091EC08F0E5
:102B0A0000C004F001C005F002C006F003C007F0DF
:102B1A0000C400F001C401F002C402F003C403F0CF
:102B2A0020EC0EF0000E046E000E056E000E066E0E
:102B3A007E0E076E10EC06F0000ED8B0010E006E85
:102B4A0000521AE0F4C300F0F5C301F0F6C302F034
:102B5A00F7C303F0000E046E000E056E000E066E3B
:102B6A007E0E076E7BEC03F000C0F4F301C0F5F3B0
:102B7A0002C0F6F303C0F7F3F4C300F0F5C301F0A3
:102B8A00F6C302F0F7C303F01AEC0AF00301EF519F
:102B9A00010F096E0A6A000E0A2209C004F00AC06F
:102BAA0005F0000E0ABEFF0E066E076E043604908C
:102BBA0005360636073604360490053606360736D5
:102BCA001D0E0424F66E650E0520F76E000E062013
:102BDA00F86E0900F5CF05F00900F5CF06F00900F7
:102BEA00F5CF07F00900F5CF08F00850035C08E1BB
:102BFA000750025C05E10650015C02E10550005CE9
:102C0A001EE30301F4C300F0F5C301F0F6C302F0BA
:102C1A00F7C303F0CD0E046ECC0E056E4C0E066E95
:102C2A007B0E076E8EEC01F000C0F4F301C0F5F3E1
:102C3A0002C0F6F303C0F7F3F84BF92B5AD0F4C3EA
:102C4A0000F0F5C301F0F6C302F0F7C303F01AEC83
:102C5A000AF0EFC304F0000E056E066E076E043626
:102C6A0004900536063607360436049005360636CD
:102C7A0007361D0E0424F66E650E0520F76E000E4B
:102C8A000620F86E0900F5CF05F00900F5CF06F029
:102C9A000900F5CF07F00900F5CF08F00850035CEA
:102CAA0008E10750025C05E10650015C02E10550AB
:102CBA00005C1FE20301F4C300F0F5C301F0F6C3A0
:102CCA0002F0F7C303F0000E046E000E056E200E2C
:102CDA00066E820E076E8EEC01F000C0F4F301C09E
:102CEA00F5F302C0F6F303C0F7F3010EF85F000E26
:102CFA00F95B0301F3A394D0F3B792D0800E000AD4
:102D0A00006E800EEE19005C02E1ED510A0804E241
:102D1A000A0EED6F000EEE6FF4C300F0F5C301F07A
:102D2A00F6C302F0F7C303F01AEC0AF000C0FAF394
:102D3A0001C0FBF302C0FCF303C0FDF3FA51FB111F
:102D4A00FC11FD1142E00A0E046E000E056E066EBD
:102D5A00076EFAC300F0FBC301F0FCC302F0FDC327
:102D6A0003F0A4EC08F008C000F009C001F00AC0A2
:102D7A0002F00BC003F0000E046E031808E10450C1
:102D8A00021805E10450011802E10050000A1DE191
:102D9A00010EED5F000EEE5B0A0E046E000E056E6C
:102DAA00066E076EFAC300F0FBC301F0FCC302F023
:102DBA00FDC303F0A4EC08F000C0FAF301C0FBF372
:102DCA0002C0FCF303C0FDF3B9D7800EEE19006E02
:102DDA00800E005C02E1EF51ED5D22E2ED51EF5D04
:102DEA000401066FB6EC0AF000C004F001C005F059
:102DFA0002C006F003C007F0F4C300F0F5C301F007
:102E0A00F6C302F0F7C303F0E6EC06F000C0F4F3F1
:102E1A0001C0F5F302C0F6F303C0F7F3EDC3EFF315
:102E2A00050E0301ED25006E000EEE21016E005025
:102E3A00F05F0150F15BED51EE1103E1F3B701D000
:102E4A0004D0010EF05F000EF15B030EF215006E66
:102E5A00F3C301F0000E01160050011004E0010E48
:102E6A00F05F000EF15BF2A539D0F2A312D0F2A105
:102E7A0003D02D0EE56F02D02B0EE56FDEC3E1FF06
:102E8A00DFC3E2FFE5C3E6FFDE4BDF2BFE4BFF2B82
:102E9A000CD0F2A10AD0DEC3E1FFDFC3E2FF200EAD
:102EAA00E66EDE4BDF2BFE4BFF2B800E006E800E94
:102EBA00F119005C02E1F05100080FE2DEC3E1FF04
:102ECA00DFC3E2FF300EE66EDE4BDF2BFE4BFF2B3D
:102EDA00010EF05F000EF15BE8D73AD0F2B718D0D6
:102EEA00800E006E800EF119005C02E1F0510008BC
:102EFA000FE2DEC3E1FFDFC3E2FF200EE66EDE4B28
:102F0A00DF2BFE4BFF2B010EF05F000EF15BE8D7C3
:102F1A00F2A312D0F2A103D02D0EE66F02D02B0E2F
:102F2A00E66FDEC3E1FFDFC3E2FFE6C3E6FFDE4B87
:102F3A00DF2BFE4BFF2B0CD0F2A10AD0DEC3E1FF40
:102F4A00DFC3E2FF200EE66EDE4BDF2BFE4BFF2BCC
:102F5A00F4C300F0F5C301F0F6C302F0F7C303F0BF
:102F6A001AEC0AF000C0FAF301C0FBF302C0FCF34A
:102F7A0003C0FDF3EFC300F0000E016E026E036E94
:102F8A0000360090013602360336003600900136CC
:102F9A00023603361D0E0024F66E650E0120F76E0A
:102FAA00000E0220F86E0900F5CF04F00900F5CFF3
:102FBA0005F00900F5CF06F00900F5CF07F0FAC3CE
:102FCA0000F0FBC301F0FCC302F0FDC303F0A4EC64
:102FDA0008F0300E0026DEC3E1FFDFC3E2FF00C0C7
:102FEA00E6FFDE4BDF2BFE4BFF2BED51EE1103E12B
:102FFA00F3B701D06FD0DEC3E1FFDFC3E2FF2E0ECD
:10300A00E66EDE4BDF2BFE4BFF2BEF51ED5F000E22
:10301A00EE5BEF534DE0EF07EFC300F0000E016ED9
:10302A00026E036E00360090013602360336003611
:10303A0000900136023603361D0E0024F66E650E28
:10304A000120F76E000E0220F86E0900F5CF04F099
:10305A000900F5CF05F00900F5CF06F00900F5CF14
:10306A0007F0FAC300F0FBC301F0FCC302F0FDC392
:10307A0003F0A4EC08F00A0E046E000E056E066E4C
:10308A00076EA4EC08F008C000F009C001F00AC0FD
:10309A0002F00BC003F0300E0026DEC3E1FFDFC3EF
:1030AA00E2FF00C0E6FFDE4BDF2BFE4BFF2BB1D762
:1030BA00ED51EE110FE0DEC3E1FFDFC3E2FF300E98
:1030CA00E66EDE4BDF2BFE4BFF2B010EED5F000E93
:1030DA00EE5BEED7F2AB0BD0DEC3E1FFDFC3E2FF5C
:1030EA00450EE66EDE4BDF2BFE4BFF2B0AD0DEC30E
:1030FA00E1FFDFC3E2FF650EE66EDE4BDF2BFE4B20
:10310A00FF2B800EF919006E800E005C02E1000EA2
:10311A00F85D11E2F8510008F86FF951000EF957FD
:10312A00DEC3E1FFDFC3E2FF2D0EE66EDE4BDF2BCF
:10313A00FE4BFF2B0AD0DEC3E1FFDFC3E2FF2B0EFB
:10314A00E66EDE4BDF2BFE4BFF2B0A0E046E000EE3
:10315A00056EF8C300F0F9C301F094EC0DF0300EDF
:10316A000026DEC3E1FFDFC3E2FF00C0E6FF030182
:10317A00DE4BDF2BFE4BFF2B0A0E046E000E056E94
:10318A00F8C300F0F9C301F094EC0DF008C000F0A8
:10319A0009C001F0300E0026DEC3E1FFDFC3E2FF03
:1031AA0000C0E6FF0301DE4BDF2BFE4BFF2BF2A72D
:1031BA001AD0800E006E800EF119005C02E1F05107
:1031CA00000811E2DEC3E1FFDFC3E2FF200EE66E74
:1031DA00DE4BDF2BFE4BFF2B010EF05F000EF15B87
:1031EA00F051F111EFE10AEF11F0F3A3F8D0800EDC
:1031FA00F919006E800E005C02E1000EF85D0AE229
:10320A00010EF85D006E000EF959016E0050ED5F77
:10321A000150EE5BF4C300F0F5C301F0F6C302F00F
:10322A00F7C303F01AEC0AF000C0FAF301C0FBF38B
:10323A0002C0FCF303C0FDF3010EEF6FEF510A0A5F
:10324A0034E0EFC300F0000E016E026E036E00362A
:10325A0000900136023603360036009001360236F7
:10326A0003361D0E0024F66E650E0120F76E000E61
:10327A000220F86E0900F5CF01F00900F5CF02F03F
:10328A000900F5CF03F00900F5CF04F00450FD5D05
:10329A0008E10350FC5D05E10250FB5D02E10150CB
:1032AA00FA5D01E202D0EF2BC9D7EF51ED5D0401BF
:1032BA00046F000E0301EE590401056F04C4EDF317
:1032CA0005C4EEF3FAC300F0FBC301F0FCC302F03D
:1032DA00FDC303F091EC08F000C004F001C005F052
:1032EA0002C006F003C007F0F4C300F0F5C301F012
:1032FA00F6C302F0F7C303F020EC0EF000C000F4AE
:10330A0001C001F402C002F403C003F404C406F4C9
:10331A00B6EC0AF000C404F001C405F002C406F0D9
:10332A0003C407F08EEC01F0000E046E000E056E69
:10333A00000E066E7E0E076E7BEC03F01AEC0AF0A6
:10334A0000C0FAF301C0FBF302C0FCF303C0FDF3B3
:10335A000301ED51EE1143E00A0E046E000E056EF4
:10336A00066E076EFAC300F0FBC301F0FCC302F05D
:10337A00FDC303F0A4EC08F008C000F009C001F096
:10338A000AC002F00BC003F0000E046E031808E135
:10339A000450021805E10450011802E10050000A25
:1033AA001EE103010A0E046E000E056E066E076E1C
:1033BA00FAC300F0FBC301F0FCC302F0FDC303F043
:1033CA00A4EC08F000C0FAF301C0FBF302C0FCF35E
:1033DA0003C0FDF3010EED5F000EEE5BB9D70301EA
:1033EA00800E006E800EEE19005C02E1ED510C08B1
:1033FA0016E3EDC306F424EC0EF0F4C304F0F5C3AF
:10340A0005F0F6C306F0F7C307F07BEC03F000C043
:10341A00F4F301C0F5F302C0F6F303C0F7F3F4C303
:10342A0000F0F5C301F0F6C302F0F7C303F0046A33
:10343A00056A066A076A7AEC08F0000ED8A4010E3B
:10344A00006E0052D8B478D0F4C300F0F5C301F08E
:10345A00F6C302F0F7C303F01AEC0AF0000E046E8A
:10346A00031808E10450021805E10450011802E1AA
:10347A000050000A61E1800E006E800E0301F91906
:10348A00005C02E1F851010857E2F8C306F4B6EC11
:10349A000AF000C004F001C005F002C006F003C043
:1034AA0007F0F4C300F0F5C301F0F6C302F0F7C366
:1034BA0003F0E6EC06F05F0E046E700E056E090E60
:1034CA00066E810E076E10EC06F0010ED8B0000EE3
:1034DA00006E005206E0090E0301F85F000EF95B68
:1034EA0005D00301080EF85F000EF95BF8C306F475
:1034FA00B6EC0AF000C004F001C005F002C006F004
:10350A0003C007F0F4C300F0F5C301F0F6C302F0FC
:10351A00F7C303F0E6EC06F01AEC0AF000C0FAF37F
:10352A0001C0FBF302C0FCF303C0FDF30301F46B1B
:10353A00F56BF66BF76B39D00301F4C300F0F5C3F2
:10354A0001F0F6C302F0F7C303F01AEC0AF000C068
:10355A00FAF301C0FBF302C0FCF303C0FDF3FAC3A4
:10356A0000F0FBC301F0FCC302F0FDC303F091ECD1
:10357A0008F000C004F001C005F002C006F003C064
:10358A0007F0F4C300F0F5C301F0F6C302F0F7C385
:10359A0003F020EC0EF000C0F4F301C0F5F302C012
:1035AA00F6F303C0F7F3F86BF96B010EEF6FEF5107
:1035BA000A0A34E0EFC300F0000E016E026E036ED9
:1035CA000036009001360236033600360090013686
:1035DA00023603361D0E0024F66E650E0120F76EC4
:1035EA00000E0220F86E0900F5CF01F00900F5CFB0
:1035FA0002F00900F5CF03F00900F5CF04F00450FA
:10360A00FD5D08E10350FC5D05E10250FB5D02E14E
:10361A000150FA5D01E202D0EF2BC9D7EF51ED2537
:10362A00006E000EEE21016EF8510026F9510122BA
:10363A000050F05F0150F15BF3B704D0ED51EE1189
:10364A0001E104D0010EF05F000EF15B030EF215EA
:10365A00006EF3C301F0000E01160050011004E0E1
:10366A00010EF05F000EF15BF2A539D0F2A312D081
:10367A00F2A103D02D0EE76F02D02B0EE76FDEC347
:10368A00E1FFDFC3E2FFE7C3E6FFDE4BDF2BFE4BC2
:10369A00FF2B0CD0F2A10AD0DEC3E1FFDFC3E2FFA9
:1036AA00200EE66EDE4BDF2BFE4BFF2B800E006EEC
:1036BA00800EF119005C02E1F05100080FE2DEC34E
:1036CA00E1FFDFC3E2FF300EE66EDE4BDF2BFE4B7F
:1036DA00FF2B010EF05F000EF15BE8D73AD0F2B78C
:1036EA0018D0800E006E800EF119005C02E1F051D4
:1036FA0000080FE2DEC3E1FFDFC3E2FF200EE66E41
:10370A00DE4BDF2BFE4BFF2B010EF05F000EF15B51
:10371A00E8D7F2A312D0F2A103D02D0EE86F02D09F
:10372A002B0EE86FDEC3E1FFDFC3E2FFE8C3E6FF6B
:10373A00DE4BDF2BFE4BFF2B0CD0F2A10AD0DEC3EF
:10374A00E1FFDFC3E2FF200EE66EDE4BDF2BFE4B0E
:10375A00FF2BEFC300F0EF0700524CE0EFC300F07D
:10376A00000E016E026E036E0036009001360236BC
:10377A000336003600900136023603361D0E002449
:10378A00F66E650E0120F76E000E0220F86E090033
:10379A00F5CF04F00900F5CF05F00900F5CF06F0E2
:1037AA000900F5CF07F0FAC300F0FBC301F0FCC330
:1037BA0002F0FDC303F0A4EC08F00A0E046E000E3A
:1037CA00056E066E076EA4EC08F008C000F009C08A
:1037DA0001F00AC002F00BC003F0300E0026DEC36F
:1037EA00E1FFDFC3E2FF00C0E6FFDE4BDF2BFE4B4B
:1037FA00FF2BAFD7800E006E800EF919005C02E134
:10380A00F85100080FE2DEC3E1FFDFC3E2FF300E2A
:10381A00E66EDE4BDF2BFE4BFF2B010EF85F000E30
:10382A00F95BE8D7800E000A006E800EEE19005C84
:10383A0002E1ED51080803E2080EEF6F02D0EDC372
:10384A00EFF3EF51ED5F000EEE5BEF5303E1F3B7D9
:10385A0001D00AD0DEC3E1FFDFC3E2FF2E0EE66E1F
:10386A00DE4BDF2BFE4BFF2BEFC306F4B6EC0AF060
:10387A00F4C304F0F5C305F0F6C306F0F7C307F086
:10388A008EEC01F0E1EC07F000C0FAF301C0FBF3A3
:10389A0002C0FCF303C0FDF30301EF534DE0EF0751
:1038AA00EFC300F0000E016E026E036E0036009048
:1038BA0001360236033600360090013602360336E8
:1038CA001D0E0024F66E650E0120F76E000E022012
:1038DA00F86E0900F5CF04F00900F5CF05F00900EC
:1038EA00F5CF06F00900F5CF07F0FAC300F0FBC3E5
:1038FA0001F0FCC302F0FDC303F0A4EC08F00A0EC9
:10390A00046E000E056E066E076EA4EC08F008C081
:10391A0000F009C001F00AC002F00BC003F0300E3B
:10392A000026DEC3E1FFDFC3E2FF00C0E6FFDE4B95
:10393A00DF2BFE4BFF2BB0D7ED51EE110FE0DEC3AC
:10394A00E1FFDFC3E2FF300EE66EDE4BDF2BFE4BFC
:10395A00FF2B010EED5F000EEE5BEED7F2A71AD039
:10396A00800E006E800EF119005C02E1F051000831
:10397A0011E2DEC3E1FFDFC3E2FF200EE66EDE4B9B
:10398A00DF2BFE4BFF2B010EF05F000EF15BF051B7
:10399A00F111EFE10AEF11F0C00EF215016EF3C357
:1039AA0002F0000E0216000E021802E1000E0118C3
:1039BA00D8A480D0F2A927D0E3C3E9FFE4C3EAFF81
:1039CA00EECF00F0EECF01F000C0E9FF01C0EAFF40
:1039DA00EECFFAF3EECFFBF3EECFFCF3EECFFDF32F
:1039EA00E3C3E9FFE4C3EAFF040EEE24006E000E0F
:1039FA00EE20016EE3C3E1FFE4C3E2FF00C0E6FF8D
:103A0A0001C0E6FF2FD0E3C3E9FFE4C3EAFFEECF2C
:103A1A0000F0EECF01F000C0E9FF01C0EAFFEECFEF
:103A2A0000F0EECF01F0000E01BEFF0E026E036E33
:103A3A0000C0FAF301C0FBF302C0FCF303C0FDF3BC
:103A4A00E3C3E9FFE4C3EAFF020EEE24006E000EB0
:103A5A00EE20016EE3C3E1FFE4C3E2FF00C0E6FF2C
:103A6A0001C0E6FF800EFD19006E800E005C08E1C1
:103A7A00000EFC5D05E1000EFB5D02E1000EFA5D41
:103A8A0018E2030EF213000EF313006A016A026AC7
:103A9A00036AFA51005EFB51015AFC51025AFD5168
:103AAA00035A00C0FAF301C0FBF302C0FCF303C0DF
:103ABA00FDF34ED0F2A927D0E3C3E9FFE4C3EAFF3E
:103ACA00EECF00F0EECF01F000C0E9FF01C0EAFF3F
:103ADA00EECFFAF3EECFFBF3EECFFCF3EECFFDF32E
:103AEA00E3C3E9FFE4C3EAFF040EEE24006E000E0E
:103AFA00EE20016EE3C3E1FFE4C3E2FF00C0E6FF8C
:103B0A0001C0E6FF25D0E3C3E9FFE4C3EAFFEECF35
:103B1A0000F0EECF01F000C0E9FF01C0EAFFEECFEE
:103B2A00FAF3EECFFBF3000EFC6FFD6FE3C3E9FF80
:103B3A00E4C3EAFF020EEE24006E000EEE20016ED0
:103B4A00E3C3E1FFE4C3E2FF00C0E6FF01C0E6FF12
:103B5A00000EEE1902E1000EED190FE1000E006EE3
:103B6A00FD1908E10050FC1905E10050FB1902E1BA
:103B7A00FA51000A02E1ED4BEE2BC00EF215006E6F
:103B8A0000C005F0AED0010EEF6FEF510A0A34E023
:103B9A00EFC300F0000E016E026E036E0036009055
:103BAA0001360236033600360090013602360336F5
:103BBA001D0E0024F66E650E0120F76E000E02201F
:103BCA00F86E0900F5CF01F00900F5CF02F00900FF
:103BDA00F5CF03F00900F5CF04F00450FD5D08E1CC
:103BEA000350FC5D05E10250FB5D02E10150FA5D04
:103BFA0001E202D0EF2BC9D782D0010EEF6FEF514D
:103C0A00080A34E0EFC300F0000E016E026E036E84
:103C1A00003600900136023603360036009001362F
:103C2A0002360336450E0024F66E650E0120F76E45
:103C3A00000E0220F86E0900F5CF01F00900F5CF59
:103C4A0002F00900F5CF03F00900F5CF04F00450A3
:103C5A00FD5D08E10350FC5D05E10250FB5D02E1F8
:103C6A000150FA5D01E202D0EF2BC9D748D0010E0C
:103C7A00EF6FEF510C0A34E0EFC300F0000E016E53
:103C8A00026E036E003600900136023603360036A5
:103C9A000090013602360336ED0E0024F66E640EED
:103CAA000120F76E000E0220F86E0900F5CF01F030
:103CBA000900F5CF02F00900F5CF03F00900F5CFAE
:103CCA0004F00450FD5D08E10350FC5D05E102507B
:103CDA00FB5D02E10150FA5D01E202D0EF2BC9D788
:103CEA000ED00550000AD8B44ED70550C00AD8B431
:103CFA004AD70550800A81E00550400AB8E0800E94
:103D0A00006E800EEE19005C02E1ED51EF5D03E2F8
:103D1A00EDC3EFF30DD0800EEE19006E800E005C3D
:103D2A0002E1EF51ED5D04E2EFC3EDF3000EEE6F39
:103D3A00F051F1110EE0030EF215006EF3C301F01B
:103D4A00000E01160050011004E0010EF05F000E93
:103D5A00F15B800EEE19006E800EF119005C02E133
:103D6A00F051ED5D05E2ED51F05FEE51F15B02D0ED
:103D7A00F06BF16BC40EF215016EF351080B026E73
:103D8A000250080A02E1400E011808E1F051F1114F
:103D9A0004E0010EF05F000EF15B1CD0C00EF215BC
:103DAA00016EF351080B026E0250080A02E1800EFE
:103DBA00011810E1800E006E800EF119005C02E11C
:103DCA00F051020805E2020EF05F000EF15B02D02C
:103DDA00F06BF16BF2A55DD0F2A312D0F2A103D081
:103DEA002D0EE96F02D02B0EE96FDEC3E1FFDFC3B0
:103DFA00E2FFE9C3E6FFDE4BDF2BFE4BFF2B34D09D
:103E0A00F2A10BD0DEC3E1FFDFC3E2FF200EE66EB4
:103E1A00DE4BDF2BFE4BFF2B27D0C00EF215016EB7
:103E2A00F351080B026E0250080A02E1800E0118D3
:103E3A001BE1DEC3E1FFDFC3E2FF300EE66EDE4BBD
:103E4A00DF2BFE4BFF2BF2AB03D0580EEA6F02D0EA
:103E5A00780EEA6FDEC3E1FFDFC3E2FFEAC3E6FFE3
:103E6A00DE4BDF2BFE4BFF2BF051F11111E0DEC3CD
:103E7A00E1FFDFC3E2FF300EE66EDE4BDF2BFE4BC7
:103E8A00FF2B010EF05F000EF15BF051F111EFE133
:103E9A0074D0F051F11113E0F2B711D0DEC3E1FF93
:103EAA00DFC3E2FF200EE66EDE4BDF2BFE4BFF2B5D
:103EBA00010EF05F000EF15BF051F111EFE1F2A398
:103ECA0012D0F2A103D02D0EEB6F02D02B0EEB6FA6
:103EDA00DEC3E1FFDFC3E2FFEBC3E6FFDE4BDF2B0E
:103EEA00FE4BFF2B0CD0F2A10AD0DEC3E1FFDFC3E9
:103EFA00E2FF200EE66EDE4BDF2BFE4BFF2BC00EE1
:103F0A00F215016EF351080B026E0250080A02E123
:103F1A00400E01180BE1DEC3E1FFDFC3E2FF300E02
:103F2A00E66EDE4BDF2BFE4BFF2B27D0C00EF215C1
:103F3A00016EF351080B026E0250080A02E1800E6C
:103F4A0001181BE1DEC3E1FFDFC3E2FF300EE66EBC
:103F5A00DE4BDF2BFE4BFF2BF2AB03D0580EEC6F80
:103F6A0002D0780EEC6FDEC3E1FFDFC3E2FFECC3E1
:103F7A00E6FFDE4BDF2BFE4BFF2B800E006E800E22
:103F8A00EE19005C02E1ED51EF5D0BE2DEC3E1FFE9
:103F9A00DFC3E2FF300EE66EDE4BDF2BFE4BFF2B5C
:103FAA00ECD7EDC300F0EEC301F0010EED5F000E99
:103FBA00EE5B00500110D8B42FD1C00EF215006E7E
:103FCA0000C000F40DD10301EDC300F0EEC301F00F
:103FDA00000EEEBFFF0E026E036E00360090013631
:103FEA0002360336003600900136023603361D0EBD
:103FFA000024F66E650E0120F76E000E0220F86EA0
:10400A000900F5CF04F00900F5CF05F00900F5CF56
:10401A0006F00900F5CF07F0FAC300F0FBC301F080
:10402A00FCC302F0FDC303F0A4EC08F00A0E046E10
:10403A00000E056E066E076EA4EC08F008C000F0CC
:10404A0009C001F00AC002F00BC003F0300E0024D0
:10405A00EF6FD6D00301F2AB45D0EDC300F0EEC34B
:10406A0001F0000EEEBFFF0E026E036E00360090E6
:10407A000136023603360036009001360236033620
:10408A00450E0024F66E650E0120F76E000E022022
:10409A00F86E0900F5CF04F00900F5CF05F0090024
:1040AA00F5CF06F00900F5CF07F0FAC300F0FBC31D
:1040BA0001F0FCC302F0FDC303F0A4EC08F00F0EFC
:1040CA000016000E011602160316760E0024F66E6E
:1040DA00650E0120F76E000E0220F86E0900F5CF7A
:1040EA00EFF344D0EDC300F0EEC301F0000EEEBFD3
:1040FA00FF0E026E036E003600900136023603365A
:10410A0000360090013602360336450E0024F66E5C
:10411A00650E0120F76E000E0220F86E0900F5CF39
:10412A0004F00900F5CF05F00900F5CF06F0090003
:10413A00F5CF07F0FAC300F0FBC301F0FCC302F0AD
:10414A00FDC303F0A4EC08F00F0E0016000E0116D2
:10415A0002160316650E0024F66E650E0120F76E30
:10416A00000E0220F86E0900F5CFEFF349D00301E3
:10417A00EDC300F0EEC301F0000EEEBFFF0E026EBB
:10418A00036E003600900136023603360036009080
:10419A00013602360336ED0E0024F66E640E012057
:1041AA00F76E000E0220F86E0900F5CF04F0090040
:1041BA00F5CF05F00900F5CF06F00900F5CF07F0B5
:1041CA00FAC300F0FBC301F0FCC302F0FDC303F025
:1041DA00A4EC08F0070E0014EF6F300EEF2710D092
:1041EA0004010051000AD8B4EED60051C00AD8B46E
:1041FA00EAD60051800AD8B42DD70051400AB7E058
:10420A00DEC3E1FFDFC3E2FFEFC3E6FF0301DE4BDC
:10421A00DF2BFE4BFF2BC5D6F2A71AD0800E006EFD
:10422A00800EF119005C02E1F051000811E2DEC3D0
:10423A00E1FFDFC3E2FF200EE66EDE4BDF2BFE4B13
:10424A00FF2B010EF05F000EF15BF051F111EFE16F
:0E425A000AEF11F0FEC300F0FFC301F01200E6
:10426800046A045005082DE304500301DE25E16EBD
:10427800000EDF21E26E060EDE25006E000EDF2145
:10428800016E04500024E96E000E0120EA6EEECFA4
:10429800E6FF060EDE25006E000EDF21016E0450DB
:1042A8000024E16E000E0120E26E1A0EE96E020E85
:1042B800EA6E0450E926D8B0EA2AEECFE6FF042ACF
:1042C800D0D7046A045003083DE303010E0EDE252F
:1042D800026E000EDF21036E100E0224006E000E27
:1042E8000320016E04500024E16E000E0120E26EEE
:1042F8000C0E0224006E000E0320016E04500024F0
:10430800E96E000E0120EA6EEECFE6FF0E0EDE2506
:10431800006E000EDF21016E0C0E0026000E012239
:1043280004500024E16E000E0120E26E5A0EE96E80
:10433800000EEA6E0450E926D8B0EA2AEECFE6FF6E
:06434800042AC0D7120098
:10434E001E0E04010C6F26EC03F000BAF9D71E0EF8
:10435E0004010C6F100E0D6F25EC02F01E0E040101
:10436E000C6F040E0D6F25EC02F00301E25308E012
:10437E001E0E0401066F080E076FA4EC07F007D09F
:10438E001E0E04010C6F080E0D6F25EC02F00A0EC6
:10439E0004010C6FDEC30DF4DFC30EF45DEC02F00E
:1043AE000C0E04010C6FE0C30DF4E1C30EF45DECD2
:1043BE0002F01E0E0401066F200E076FA4EC07F02C
:1043CE001E0E04010C6F26EC03F000BAF9D7100E86
:0A43DE0004010C6F26EC03F012003E
:1043E800D1C3DEF3D2C3DFF33BDF220E0301D125B5
:1043F800006E000ED221016E00C0E9FF01C0EAFF85
:10440800EECFD6F3EECFD7F3020E0024E96E000EFE
:104418000120EA6E00C0E1FF01C0E2FFEECFE6FF37
:10442800EECFE6FF220ED125006E000ED221016EDE
:10443800020E0024E16E000E0120E26ED6C3E6FFF4
:10444800D7C3E6FF220ED125006E000ED221016EE1
:10445800100E0024E16E000E0120E26EE66AE66AA4
:10446800D1C3DEF3D2C3DFF3D3C3E0F3000EE16FB1
:10447800E26B03EC10F0220E0301D125006E000E52
:10448800D221016E100E0024D86F000E0120D96FC2
:10449800220EDE6F000EDF6FD4C3E0F3D5C3E1F365
:1044A800010EE26F50DFD8C3E1FFD9C3E2FF00C0BD
:1044B800E6FF01C0E6FFD1C3DEF3D2C3DFF3D3C307
:1044C800E0F3000E0301E16F010EE26F03EC10F060
:0244D8001200D0
:1044DA000E0E0301D125006E000ED221016E060ECA
:1044EA000024E16E000E0120E26E000EE66E020E5E
:1044FA00E66ED46BD451050866E3D451D125E16E3A
:10450A00000ED221E26E060ED125006E000ED221D7
:10451A00016ED4510024E96E000E0120EA6EEECF3E
:10452A00E6FF0E0ED125026E000ED221036E120E88
:10453A000224006E000E0320016ED4510024E16EA5
:10454A00000E0120E26E080E0224006E000E032007
:10455A00016ED4510024E96E000E0120EA6EEECFFE
:10456A00E6FF060ED125006E000ED221016ED4514F
:10457A000024E16E000E0120E26E1A0EE96E020EB0
:10458A00EA6ED451E926D8B0EA2AEECFE6FF0E0E3B
:10459A00D125006E000ED221016E080E0026000EF3
:1045AA000122D4510024E16E000E0120E26E1A0E9F
:1045BA00E96E020EEA6ED451E926D8B0EA2AEECFA5
:1045CA00E6FFD42B97D7D46BD45103083CE30E0EE5
:1045DA00D125026E000ED221036E180E0224006E3F
:1045EA00000E0320016ED4510024E16E000E01205A
:1045FA00E26E0E0E0224006E000E0320016ED451EC
:10460A000024E96E000E0120EA6EEECFE6FF0E0EE0
:10461A00D125006E000ED221016E0E0E0026000E6C
:10462A000122D4510024E16E000E0120E26E5A0EDE
:10463A00E96E000EEA6ED451E926D8B0EA2AEECF26
:10464A00E6FFD42BC1D7D1C3DEF3D2C3DFF32A0EE0
:10465A00E06F000EE16F010EE26F03EC10F0120042
:10466A00D1C3E9FFD2C3EAFFEE505A181FE1010E87
:10467A000301D125E96E000ED221EA6EEE505B18D5
:10468A0015E1020ED125E96E000ED221EA6EEE5036
:10469A005C180CE1030ED125E96E000ED221EA6EF8
:1046AA00EE505D1803E1010E006E01D0006A12009F
:1046BA00540E04010C6F000E0301D11104010D6F99
:1046CA00000E01090E6F5DEC02F0660E04010C6F1C
:1046DA00D2C30DF4000E0E6F5DEC02F06A0E0401F7
:0E46EA000C6F26EC03F000A001D0F8D71200F0
:1046F800160E04010C6F340E0D6F120E0E6F5DEC6A
:1047080002F0160E04010C6F26EC03F00150120A99
:1047180002E1340E0018ECE1CA0E0401146F23EC18
:1047280001F00301AD6B1A0E04010C6F26EC03F0C7
:10473800000E0014026E01501A0B036E03501A0A81
:1047480002E1000E021801E0EED74F0E0D6E0D2E9D
:10475800FED700000000160E04010C6F26EC03F0D3
:10476800000E011802E1000E0018C2E10B0E0C6EDB
:10477800620E0D6E0D2EFED70C2EFCD70000120017
:0C4788003A0E0D6E0D2EFED70000120040
:10479400D3C304F0D4C305F0D1C302F0D2C303F0F1
:1047A400D5C300F0D6C301F0010E0301D55F000E9E
:1047B400D65B005001100FE004C0E9FF05C0EAFF1A
:1047C40002C0E1FF03C0E2FFEECFE6FF024A032A84
:1047D400044A052AE5D7D1C300F0D2C301F0120080
:1047E4008A0E04010C6F3AC20DF43BC20EF45DEC68
:1047F40002F0040E0301DE6FD30EDF6F030EE06FD1
:10480400080EE16F000EE26F39EC10F0D30E0201D6
:104814003C6F030E3D6F3CC2E9FF3DC2EAFFEECFA1
:104824003AF2EECF3BF2020E3C25E96E000E3D213A
:10483400EA6EEECF01F0EECF02F001C0D1F302C078
:10484400D2F3000E006E0250005C02E10150C80871
:1048540005E2C80E0301D16F000ED26F0301040EEE
:10486400DE6F7C0EDF6F020EE06FD1C3E1F3D2C3C3
:10487400E2F339EC10F0060E0C6F3CC2E9FF3DC2C6
:10488400EAFFEECF00F0EECF01F0020E005C0D6FF8
:10489400000E01580E6F5DEC02F0040E0301D15FAF
:1048A400000ED25BCC0E0401146F23EC01F0040E55
:1048B40002013C25E96E000E3D21EA6EEECF00F0C8
:1048C40000AE05D0D1C300F0D2C301F002D0006A1B
:0448D400016A120063
:1048D800D4C305F0066A076A086AD3C303F0D2C3D3
:1048E80002F0D1C301F0006A000E0016000E011696
:1048F800FF0E0216000E0316005005120150061294
:104908000250071203500812D2C300F0D3C301F0BB
:10491800D4C302F0036A000E0016FF0E0116000E43
:104928000216031600500512015006120250071213
:1049380003500812D1C303F0006A016A026A0550E5
:10494800001206500112075002120850031200C04C
:10495800D1F301C0D2F302C0D3F303C0D4F31200E1
:10496800030E0401066F010E076FCBEC06F0220E52
:104978000301D125006E000ED221016E040E002421
:10498800E96E000E0120EA6EEECF05F0EECF06F0DC
:1049980006C003F0046A05C001F0006A0350001263
:1049A8000450011200C038F201C039F2080E005C50
:1049B800D66FD1C3DEF3D2C3DFF352DC220E03017C
:1049C800D125006E000ED221016E00C0E9FF01C0A2
:1049D800EAFFEECFD4F3EECFD5F3020E0024E96E52
:1049E800000E0120EA6E00C0E1FF01C0E2FFEECF39
:1049F800E6FFEECFE6FF220ED125006E000ED22193
:104A0800016E020E0024E16E000E0120E26ED4C396
:104A1800E6FFD5C3E6FF220ED125006E000ED22197
:104A2800016E060E0024E16E000E0120E26EE66AB9
:104A3800E66AD76BD751D65D2DE32A0ED125006ED5
:104A4800000ED221016ED7510024E96E000E01201C
:104A5800EA6E610EEE5C1CE32A0ED125006E000E94
:104A6800D221016ED7510024E96E000E0120EA6EB2
:104A7800EE507A080DE32A0ED125006E000ED221E1
:104A8800016ED7510024E16E000E0120E26EE69A15
:104A9800D72BD0D72A0ED125006E000ED221016E59
:104AA800D6510024E16E000E0120E26EE66AD1C301
:104AB800DEF3D2C3DFF3D3C3E0F3000EE16FE26BA2
:104AC80003EC10F0220E0301D125006E000ED22156
:104AD800016E060E0024D86F000E0120D96F220E39
:104AE800DE6F000EDF6F38C2E0F339C2E1F3010E6A
:104AF800E26F29DCD8C3E1FFD9C3E2FF00C0E6FFBB
:104B080001C0E6FFD1C3DEF3D2C3DFF3D3C3E0F3C2
:104B1800000E0301E16F71EC10F0D1C3DEF3D2C3D4
:104B2800DFF3D3C3E0F3000E0301E16F010EE26F80
:064B380003EC10F0120076
:104B3E000301D56BD551030838E3D551D125E16E6C
:104B4E00000ED221E26E0E0ED325006E000ED42181
:104B5E00016E0C0E0026000E0122D5510024E96EC6
:104B6E00000E0120EA6EEECFE6FF040ED125006E98
:104B7E00000ED221016ED5510024E16E000E0120EF
:104B8E00E26E0E0ED325006E000ED421016E100EB5
:104B9E000026000E0122D5510024E96E000E0120E0
:104BAE00EA6EEECFE6FFD52BC5D7080ED125E16E06
:104BBE00000ED221E26EE66A090ED125E16E000EDC
:104BCE00D221E26E110EE66E0A0ED125E16E000EB6
:104BDE00D221E26E220ED325006E000ED421016E7C
:104BEE00040E0024E96E000E0120EA6EEECFE6FF01
:104BFE00EECFE6FFD1C3DEF3D2C3DFF30C0EE06FD0
:104C0E00000EE16F52EC10F0330E0401066F010E30
:104C1E00076FCBEC06F0520E0301DE6F060EDF6F50
:104C2E000C0EE06F000EE16FE26BA7EC21F000C0FE
:104C3E00D6F301C0D7F300C0DEF301C0DFF33E0EA2
:104C4E000301E06F020EE16FBCEC10F04C0E04019C
:104C5E00066F010E076FCBEC06F03E0E066F020ECE
:104C6E00076FCBEC06F0610E066F010E076FCBECF3
:0C4C7E0006F0D6C300F0D7C301F012000E
:104C8A00950E0401066F010E076FCBEC06F0220E9B
:104C9A000301D125006E000ED221016E020E0024FE
:104CAA00E96E000E0120EA6EEECF01F0EECF02F0BF
:104CBA0002508D0A02E1130E01183AE1220ED125A3
:104CCA00006E000ED221016E040E0024E96E000E61
:104CDA000120EA6EEECFDEF3FFEC0FF0080E005C67
:104CEA00026E2A0ED125006E000ED221016E0250EC
:104CFA000024E16E000E0120E26EE66A2A0ED1253A
:104D0A000401066F000E0301D2210401076FCBECE8
:104D1A0006F0920E066F010E076FCBEC06F0640EDA
:104D2A00066F010E076FCBEC06F0010E006E01D084
:044D3A00006A1200F9
:104D3E00D60E0301DC6F030EDD6FD1C3DEF3D2C3DB
:104D4E00DFF3D3C3E0F3D4C3E1F3D5C3E2F3DC0E58
:104D5E00E36F030EE46F05EC11F000C0DAF301C04F
:104D6E00DBF30050D125E16E0150D221E26EE66AEE
:0A4D7E00DAC300F0DBC301F01200FD
:104D88000E0E0301D325006E000ED421016E020E13
:104D98000024E96E000E0120EA6EEECF05F0EECF9A
:104DA80006F006C003F0046A05C001F0006A00506E
:104DB8000310066E04500110076E220ED325006EF4
:104DC800000ED421016E0C0E0024046E000E01208A
:104DD800056E04C0E9FF05C0EAFFEECF00F0F00E53
:104DE8000014036E0332039E0332039E0332039EB4
:104DF8000332039E03C000F0000E016E0036013638
:104E08000090003601360090140E0026000E012294
:104E18000050065C026E01500758036E04C0E9FF9B
:104E280005C0EAFFEECF00F0F00E0014016E01326B
:104E3800019E0132019E0132019E0132019E01C094
:104E4800D8F3000ED96FD837D937D891D837D93792
:104E5800D8910250D8270350D923D56BD5510308D0
:104E680038E3D551D125E16E000ED221E26E0E0E47
:104E7800D325006E000ED421016E0C0E0026000E04
:104E88000122D5510024E96E000E0120EA6EEECF12
:104E9800E6FF040ED125006E000ED221016ED55119
:104EA8000024E16E000E0120E26E0E0ED325006E86
:104EB800000ED421016E100E0026000E0122D551DD
:104EC8000024E96E000E0120EA6EEECFE6FFD52B36
:104ED800C5D7080ED125E16E000ED221E26EE66A32
:104EE800090ED125E16E000ED221E26E060EE66EA5
:104EF8000A0ED125E16E000ED221E26ED9C303F06D
:104F0800046AD8C301F0006A035000120450011269
:104F180000C0E6FF01C0E6FFD1C3DEF3D2C3DFF372
:104F28000C0EE06F000EE16F52EC10F0F70E04016A
:104F3800066F010E076FCBEC06F0520E0301DE6F11
:104F4800060EDF6F0C0EE06F000EE16FE26BA7EC50
:104F580021F000C0D6F301C0D7F3D1C3DEF3D2C32A
:104F6800DFF3160E0301E06F000EE16F71EC10F035
:0A4F7800D6C300F0D7C301F0120009
:104F82003C0E0201346F040E356F0C0E366F040EA8
:104F9200376FFF0E306FFF0E316F000E326F000E53
:104FA200336FFF0E286FFF0E296F000E2A6F000E5F
:104FB2002B6FFF0E2C6FFF0E2D6F000E2E6F000E4B
:104FC2002F6FAC8A900EAB6E948E949C9EAA03D0E7
:084FD200AECF00F0FBD7120086
:104FDA00C26A070EC012C08EB8C300F00036009035
:104FEA00003600900050C212C280C4EC23F0C28284
:104FFA00C2A201D0FDD7C4CF01F0006AC35000128B
:08500A00000E0112C290120019
:105012008B829492949A94969488C66A400EC76E34
:10502200200EC66E9E967CEC23F0640E04010C6F7B
:1050320026EC03F000C026F201C027F2FF0E001496
:1050420002011A6F01C002F0036AFF0E02141B6F05
:10505200620E04010C6F26EC03F000C026F201C0C0
:1050620027F2FF0E001402011C6F01C002F0036A56
:10507200FF0E02141D6F600E04010C6F26EC03F08C
:1050820000C026F201C027F2FF0E001402011E6FBB
:1050920001C002F0036AFF0E02141F6F400E3A6F46
:1050A200530E3B6F04010C6B0D6B0E6B5DEC02F04B
:1050B200040E04010C6F400E0D6F530E0E6F5DEC6B
:1050C20002F08A0E04010C6F400E0D6F530E0E6F2C
:1050D2005DEC02F0060E04010C6FFD0E0D6F5F0E0B
:1050E2000E6F5DEC02F0040E0301D16FE10ED26F80
:1050F2005DEC23F0E80E0401146F23EC01F01200C2
:105102000900F5CFE6FF0006FBE10106F9E1120016
:105112005EC020F25FC021F2220E0301B825E16ECB
:10512200000EB921E26E130EE66E8D0EE66E220EB1
:10513200B825006E000EB921016E020E0024E16E48
:10514200000E0120E26E15C0E6FF16C0E6FF360E25
:10515200B825E16E000EB921E26E20C2E6FF360EDE
:10516200B825006E000EB921016E010E0024E16E19
:10517200000E0120E26E21C2E6FF220EB825006E6B
:10518200000EB921016E0C0E0024026E000E0120E9
:10519200036E02C0E9FF03C0EAFFEECF00F0F00E9B
:1051A200001602C0E1FF03C0E2FF00C0E6FF220ECC
:1051B200B825006E000EB921016E0C0E0024026E9D
:1051C200000E0120036E02C0E9FF03C0EAFFEECF2A
:1051D20001F0500E0118006EF00E00160150001A78
:1051E20002C0E1FF03C0E2FF00C0E6FF220EB825C5
:1051F200006E000EB921016E120E0024E16E000E47
:105202000120E26EE66AE66A220EB825046E000EFE
:10521200B921056E0C0E0424E96E000E0520EA6E1B
:10522200EECF00F0F00E0014036E0332039E033241
:10523200039E0332039E0332039E03C000F0000E5E
:10524200016E0036013600900036013600900050A3
:10525200BC5D006E0150BD59016E00C022F201C05A
:1052620023F2000E026E036E00017C5100267D5176
:1052720001227E5102227F51032200C07CF001C034
:105282007DF002C07EF003C07FF0040E042403010F
:10529200BE6F000E0520BF6F00C0D1F301C0D2F374
:1052A20002C0D3F303C0D4F36CEC24F0BEC3E1FF1D
:1052B200BFC3E2FF00C0E6FF01C0E6FF02C0E6FF97
:1052C20003C0E6FF220EB825006E000EB921016E62
:1052D200080E0024E16E000E0120E26EE66AE66A24
:1052E200E66AE66A220EB825006E000EB921016E4A
:1052F2000D0E0024E16E000E0120E26EE66A220E1F
:10530200B825006E000EB921016E0D0E0024E16E6B
:10531200000E0120E26EE688220EB825006E000E15
:10532200B921016E0D0E0024E16E000E0120E26E25
:10533200E686240EBC6F000EBD6F0E0EB825D16F2F
:10534200000EB921D26F0C0ED127000ED223160EF9
:10535200D36F020ED46F040ED56F000ED66FCAEC57
:1053620023F00E0EB825D16F000EB921D26F100EA8
:10537200D127000ED2235A0ED36F000ED46F040E23
:10538200D56F000ED66FCAEC23F0160E0201246F01
:10539200000E256F0E0E0301B825006E000EB92116
:1053A200016E090E0024E16E000E0120E26E060E6F
:1053B200E66E0E0EB825E16E000EB921E26E450EC4
:1053C200E66E0E0EB825006E000EB921016E010EBA
:1053D2000024E16E000E0120E26EE66A0E0EB82590
:1053E200006E000EB921016E020E0024E16E000E65
:1053F2000120E26E140E02012425056E000E252105
:10540200066E06C003F0046A05C001F0006A03508C
:1054120000120450011200C0E6FF01C0E6FF0E0EAA
:105422000301B825006E000EB921016E040E00249E
:10543200E16E000E0120E26E870EE66E020EE66E4F
:105442000E0EB825006E000EB921016E060E002464
:10545200E16E000E0120E26EE66AE66A0E0EB825E3
:10546200006E000EB921016E080E0024E16E000EDE
:105472000120E26E800EE66E0E0EB825006E000E62
:10548200B921016E020E0024E16E000E0120E26ECF
:10549200BDC303F0000EBDBFFF0E046EBCC301F01E
:1054A200006A035000120450011200C0E6FF01C05E
:1054B200E6FF060EB825D16F000EB921D26F100E8D
:1054C200D36F020ED46F060ED56F000ED66FCAECE4
:1054D20023F0B8C3D1F3B9C3D2F31A0ED36F020EBD
:1054E200D46F060ED56F000ED66FCAEC23F00C0EE9
:1054F200B825E16E000EB921E26E080EE66E000ECE
:10550200E66E4A0EBA6F020EBB6FBAC3D1F3BBC3CB
:10551200D2F3B8C3D3F3B9C3D4F335DCD60E066FD6
:10552200000E076FCBEC06F0B8C3D1F3B9C3D2F3C8
:1055320048C2D3F324C2D4F325C2D5F3F4EC21F04C
:02554200120055
:10554400E60E0401066F000E076FCBEC06F00E0E9C
:105554000301B825E96E000EB921EA6EEECF01F021
:10556400EECF02F00250010A02E1000E011863E1DD
:105574000E0EB825006E000EB921016E020E002435
:10558400E96E000E0120EA6EEECF01F0EECF02F0DC
:10559400000E021802E1080E01184DE10E0EB825A6
:1055A400006E000EB921016E040E0024E96E000E97
:1055B4000120EA6EEE50060A3EE10E0EB825006E9A
:1055C400000EB921016E050E0024E96E000E0120C3
:1055D400EA6EEE50040A2FE10E0EB825006E000E9E
:1055E400B921016E060E0024E96E000E0120EA6E58
:1055F400EECF01F0EECF02F00250010A02E1000EFC
:10560400011819E10E0EB825D16F000EB921D26F21
:10561400180ED127000ED22335EC23F000520BE0F4
:10562400B8C3D1F3B9C3D2F348C2D3F36DEC22F0BB
:0A563400010E006E01D0006A1200A2
:10563E00E20E0401066F010E076FCBEC06F0220E90
:10564E000301B825006E000EB921016E020E002472
:10565E00E96E000E0120EA6EEECF01F0EECF02F001
:10566E0002508D0A02E1130E0118D8A459EF2FF043
:10567E00AA0E0401066F010E076FCBEC06F07C0E2E
:10568E000301B86F020EB96F4A0EBB6F020EBC6FEC
:10569E00BBC3D1F3BCC3D2F3B8C3D3F3B9C3D4F3F2
:1056AE00C4EC26F0220E0301B825006E000EB921BF
:1056BE00016E0D0E0024026E000E0120036E02C05C
:1056CE00E9FF03C0EAFFEECF00F000C0A8F302C06E
:1056DE00E1FF03C0E2FFE66AA851020AD8A4D3D0C4
:1056EE00C90E0401066F010E076FCBEC06F0220EF9
:1056FE000301B825006E000EB921016E040E0024C0
:10570E00E96E000E0120EA6EEECF00F0EECF01F052
:10571E00EECF02F0EECF03F000C0A9F301C0AAF362
:10572E0002C0ABF303C0ACF300C0D1F301C0D2F39F
:10573E0002C0D3F303C0D4F36CEC24F000C0A9F381
:10574E0001C0AAF302C0ABF303C0ACF3010E0026F6
:10575E00000E01220222032200C0A9F301C0AAF307
:10576E0002C0ABF303C0ACF300C0D1F301C0D2F35F
:10577E0002C0D3F303C0D4F36CEC24F000C0A9F341
:10578E0001C0AAF302C0ABF303C0ACF3220EB825DE
:10579E00046E000EB921056E080E0424E16E000E93
:1057AE000520E26E00C0E6FF01C0E6FF02C0E6FF84
:1057BE0003C0E6FF220EB825006E000EB921016E61
:1057CE00040E0024E16E000E0120E26E120EE66E53
:1057DE00340EE66E560EE66E780EE66E220EB82586
:1057EE00006E000EB921016E0D0E0024E16E000E4A
:1057FE000120E26EE682220EB825006E000EB9215F
:10580E00016E0D0E0024E16E000E0120E26EE688A0
:10581E00220EB825006E000EB921016E0C0E00246A
:10582E00E96E000E0120EA6EEECF00F0F00E0014CD
:10583E00036E0332039E0332039E0332039E033232
:10584E00039E03C000F0000E016E0036013600907C
:10585E0000360136009000C024F201C025F2B8C314
:10586E00D1F3B9C3D2F348C2D3F300C0D4F301C00D
:10587E00D5F3F4EC21F09D0E0401066F000E076FB8
:10588E00CBEC06F00FD30301A851180AD8A42ED2E0
:10589E00800E0401066F000E076FCBEC06F00E0EA5
:1058AE000301B825006E000EB921016E020E002410
:1058BE00E96E000E0120EA6EEECF05F0EECF06F097
:1058CE0006C003F0046A05C001F0006A0050031020
:1058DE00056E04500110066E220EB825006E000EE5
:1058EE00B921016E0C0E0024E96E000E0120EA6E45
:1058FE00EECF00F0F00E0014036E0332039E03325F
:10590E00039E0332039E0332039E03C000F0000E7B
:10591E00016E003601360090003601360090140EEE
:10592E000026000E01220050055C006E0150065844
:10593E00016E00C022F201C023F200500110D8B453
:10594E009ED1220EB825006E000EB921016E040EF6
:10595E000024E96E000E0120EA6EEECF00F0EECFCD
:10596E0001F0EECF02F0EECF03F000C0A9F301C0BC
:10597E00AAF302C0ABF303C0ACF300C0D1F301C075
:10598E00D2F302C0D3F303C0D4F36CEC24F000C006
:10599E00A9F301C0AAF302C0ABF303C0ACF302013A
:1059AE002251002623510122000E0222032200C0A2
:1059BE00A9F301C0AAF302C0ABF303C0ACF300C05D
:1059CE007CF001C07DF002C07EF003C07FF0BD0E02
:1059DE000301D16F030ED26F970ED36F650ED46F86
:1059EE00000ED56F00C0D6F301C0D7F302C0D8F3B6
:1059FE0003C0D9F39FEC26F0B30E0401066F000E20
:105A0E00076FCBEC06F0BD0E066F030E076FCBECE7
:105A1E0006F0C90E066F000E076FCBEC06F0A9C399
:105A2E00D1F3AAC3D2F3ABC3D3F3ACC3D4F36CECB0
:105A3E0024F000C0A9F301C0AAF302C0ABF303C067
:105A4E00ACF3BD0E0301D16F030ED26F9A0ED36F5E
:105A5E00650ED46F000ED56F7CC0D6F37DC0D7F324
