:1000000053EF31F00000000000EF00F000000000AE
:0A0010000000000000000000F3D71C
:10001C000B820BAE18EF00F00368026801680068F1
:08002C000A360232FF0E120039
:0E003400026A016A006A086A036A000E12007E
:100042000B840BAE2CEF00F0010E036E026A016A04
:0A005200006A0A360232FF0E1200A7
:08005C000AAE029E000E120024
:100064000CB074EF00F00CA21AEF01F00E6A000E4F
:1000740002648BEF00F0F00E0214D8A456EF00F0E7
:10008400023A01380F0B02260138F00B016E0038DA
:100094000F0B01260038F00B006E08380F0B0026FA
:1000A4000838F00B086E0E84D89002BE6FEF00F093
:1000B40008360036013602360E2A02BE6FEF00F013
:1000C40008360036013602360E2A02BE6FEF00F003
:1000D40008360036013602360E2A0E50036410EF3D
:1000E40001F0035E0BBC08AE15EF01F0D880800E62
:1000F40008640030000E002201220222D8A015EF6D
:1001040001F0023201320032034A1AEF01F015EF16
:1001140001F001C002F000C001F008C000F0086A5C
:10012400000E0E860264C2EF00F0F00E0214D8A492
:10013400AAEF00F0023A01380F0B02260138F00B47
:10014400016E00380F0B01260038F00B006E0E8490
:10015400D89002BE6FEF00F00036013602360E2A48
:1001640002BE6FEF00F00036013602360E2A02BEE0
:100174006FEF00F00036013602360E2A6FEF00F002
:1001840001C002F000C001F0006A000E0E960E8855
:100194000264EFEF00F0F00E0214D8A4DAEF00F0DE
:1001A400023A01380F0B02260138F00B016E0E845F
:1001B400D89002BE6FEF00F0013602360E2A02BE5E
:1001C4006FEF00F0013602360E2A02BE6FEF00F028
:1001D400013602360E2A6FEF00F001C002F0016A08
:1001E400000E0E8602641FEF01F0F00E0214D8A474
:1001F400FEEF00F0023A0E84D89002BE6FEF00F0DA
:1002040002360E2A02BE6FEF00F002360E2A02BE3C
:100214006FEF00F002360E2A6FEF00F0010E0C6E45
:100224000EDF22EF01F0020E0C6E16DF22EF01F05A
:10023400040E0C6EF1DE22EF01F0080E0C6EF8DEF7
:020244001200A6
:100246000D6A086A0050D8B4000C04180A6E0ABE7B
:100256000D1E0B6A04AE02D0041E042A00AE02D0A4
:10026600001E002A005004100A6E0ABE1FD0045059
:10027600085E003600340836045008260036060E9E
:100286000C6E00340836045000B0085E00A0082644
:1002960000360C2EF6D700A008260BB015D00DAEF2
:1002A600000C001E002A081E082A000C04AE09D005
:1002B60000BE04D00050086E006AF1D7006A002A1A
:1002C600000C001E0B2AD3D7082A0450085CD8A4B9
:0E02D600E6D7086A002A00AEE2D7FF0C12003D
:1002E4000134083609360450085E0550D8A0053C90
:1002F400095E003601360F0E0C6E013408360936DD
:10030400045000A006D0085E0550D8A0053C095E44
:1003140005D008260550D8B0053C0926003601361C
:100324000C2EEBD700B006D0045008260550D8B0E8
:08033400053C0926000012003F
:10033C000B800BAEAAEF01F0026A0AAEFF0E026E42
:0C034C00016E006E0A360232FF0E120035
:080358000B6A0B86FF0E120078
:10036000086A096A000E0762036435EF02F0025062
:1003700006180A6E075003267E0ED8A0C6EF01F0BD
:10038000035ED8B039EF02F0CAEF01F0035ED8A0E7
:100390003DEF02F0028E068E02C00EF001C00BF09F
:1003A00000C00DF000500402F4CF0CF00150050223
:1003B000F4CF00F0F3CF08F00402F3500C26F45011
:1003C0000822000E00220D500502F3500C26F450B6
:1003D0000822000E002202500402F3500826F450B6
:1003E000002202500502016A000E0122F35000268D
:1003F000F45001220D500602F3500826F45000225A
:10040000026A000E012202220B500602F35000265F
:10041000F4500122000E02220E500602F350012673
:10042000F450022202BE1DEF02F0083600360136FB
:1004300002360306D8B43DEF02F030EF02F0D88068
:10044000800E08640030000E002201220222D8A093
:1004500030EF02F0023201320032034A39EF02F08B
:100460000AAE029E000E3FEF02F0010EE3DD3FEF09
:1004700002F0020ED3DD3FEF02F0040EE2DD1200C7
:10048000025006180E6E086A096A0B6A0350076468
:1004900033EF03F006500A6E068E028E03500B6E89
:1004A0000750036E000E0B6483EF02F00B50075EE3
:1004B000D8B424EF03F0070E0764F2EF02F0075EF2
:1004C00000C008F001C000F002C001F0026A074E4F
:1004D00024EF03F00764C7EF02F0075E00C008F0E6
:1004E00001C000F0016A074E24EF03F00764A5EF96
:1004F00002F0075E00C008F0006A074E24EF03F028
:1005000007648CEF02F00AC002F005C001F004C0DD
:1005100000F0086A50EF04F0030E076497EF02F052
:10052000075E08380F0B086E074E24EF03F0D890D3
:100530000832074E24EF03F0D8900832074E24EF1C
:1005400003F0D890083224EF03F0030E0764B6EFEF
:1005500002F0075E08380F0B086E0038F00B082613
:1005600000380F0B006E074E24EF03F0D8900032D6
:100570000832074E24EF03F0D89000320832074EBD
:1005800024EF03F0D8900032083224EF03F0030E7A
:100590000764DEEF02F0075E08380F0B086E0038C4
:1005A000F00B082600380F0B006E0138F00B002608
:1005B00001380F0B016E074E24EF03F0D890013283
:1005C00000320832074E24EF03F0D8900132003297
:1005D0000832074E24EF03F0D8900132003208327F
:1005E00024EF03F0030E07640FEF03F0075E0838F3
:1005F0000F0B086E0038F00B082600380F0B006E4A
:100600000138F00B002601380F0B016E0238F00B99
:10061000012602380F0B026E074E24EF03F0D8902C
:100620000232013200320832074E24EF03F0D89034
:100630000232013200320832074E24EF03F0D89024
:100640000232013200320832096A000E0EAE18EF93
:1006500004F0081E001E011E021E082A00220122AC
:10066000022218EF04F00750D8A439EF03F050EF3E
:1006700004F0096A02C00AF0028E068E0750035C7D
:10068000076ED8B40BEF04F0070E0764D9EF03F040
:10069000075E0450096E0550046E0650056E066A2A
:1006A000074E0BEF04F0070E0764AEEF03F0075E92
:1006B0000450096E0550046E056A074E0BEF04F0F6
:1006C000070E07648CEF03F0075E0450096E046A9E
:1006D000074E0BEF04F0070E076473EF03F00AC038
:1006E00002F050EF04F0030E07647EEF03F0075EA4
:1006F00009380F0B096E074E0BEF04F0D890093242
:10070000074E0BEF04F0D8900932074E0BEF04F0C0
:10071000D89009320BEF04F0030E07649DEF03F04D
:10072000075E09380F0B096E0438F00B09260438F0
:100730000F0B046E074E0BEF04F0D8900432093211
:10074000074E0BEF04F0D89004320932074E0BEF3E
:1007500004F0D890043209320BEF04F0030E076462
:10076000C5EF03F0075E09380F0B096E0438F00B74
:10077000092604380F0B046E0538F00B04260538E3
:100780000F0B056E074E0BEF04F0D89005320432C4
:100790000932074E0BEF04F0D890053204320932CB
:1007A000074E0BEF04F0D8900532043209320BEFFC
:1007B00004F0030E0764F6EF03F0075E09380F0B31
:1007C000096E0438F00B092604380F0B046E053847
:1007D000F00B042605380F0B056E0638F00B0526C6
:1007E00006380F0B066E074E0BEF04F0D89006325A
:1007F000053204320932074E0BEF04F0D89006326E
:10080000053204320932074E0BEF04F0D89006325D
:10081000053204320932086A000E0EAE18EF04F0F9
:10082000091E041E051E061E092A04220522062290
:1008300009500826045000220550012206500222C9
:100840000EBE2FEF04F0D8A03EEF04F002320132CA
:1008500000320832033E3EEF04F04AEF04F0D8B015
:1008600044EF04F0000E081E001E011E021E082A9E
:100870000022012202220A7E44EF04F0010E0C6ED7
:1008800032EC00F052EF04F0020E0C6E32EC00F08D
:1008900052EF04F0040E0C6E0EEC00F052EF04F078
:0608A000000E0C6E1200B8
:1008A600086A080E0C6E003408360450085ED8B08C
:0E08B60002D00826D89000360C2EF5D712007E
:1008C4000450000A08E10550000A05E1FF0E006E1D
:1008D4007F0E016E57D00D6A096A086A0150001034
:1008E400D8B4000C015005180A6E0ABE0D1E0B6A1E
:1008F40005AE05D0041E051E042AD8B4052A01AE8F
:1009040005D0001E011E002AD8B4012A015005108A
:100914000A6E0ABE10D0E4DC0BB020D00DAE000C81
:10092400001E011E002AD8B4012A081E091E082A26
:10093400D8B4092A000C05AE0DD001BE07D0015071
:10094400096E0050086E016A006AE8D7016A006AFD
:10095400002A000C011E001E0B2ADDD7082AD8B479
:10096400092A0450085CD8A4D9D70550095CD8A436
:10097400D5D7096A086A002AD8B4012A01AECED7AD
:060984000000FF0C120050
:10098A008B929E96A7C4C9FF076A9EB601D0FDD76F
:10099A009E96C9CF04F0A8C4C9FF9EB601D0FDD760
:1009AA009E96C9CF04F0A9C4C9FF9EB601D0FDD74F
:1009BA009E96C9CF05F0AAC4C9FF9EB601D0FDD73D
:1009CA009E96C9CF06F08B8204C000F005C001F0E4
:0A09DA0006C002F007C003F012008F
:1009E4008B929E96A7C4C9FF9EB601D0FDD79E9652
:1009F400C9CF02F0A8C4C9FF9EB601D0FDD79E9608
:100A0400C9CF02F0A9C4C9FF9EB601D0FDD79E96F6
:100A1400C9CF03F08B8202C000F003C001F01200C2
:100A24008B929E96A7C4C9FF9EB601D0FDD79E9611
:080A3400C9CF00F08B82120013
:100A3C000A6A0350D8A40A800750D8A40A820A5024
:100A4C00D8B481EF05F0030AD8B43AEF05F00AB038
:100A5C0035EF05F006AE7FEF05F07DEF05F002AE49
:100A6C007DEF05F07FEF05F00250800B0A6E029EC1
:100A7C000650800B069E0A18D8B44BEF05F00A50AE
:100A8C00D8B47DEF05F07FEF05F00750035CD8B4C8
:100A9C0055EF05F0D8A071EF05F077EF05F0065093
:100AAC00025CD8B45FEF05F0D8A071EF05F077EFDA
:100ABC0005F00550015CD8B469EF05F0D8A071EFD2
:100ACC0005F077EF05F00450005CD8B481EF05F029
:100ADC00D8B077EF05F00A52D8B47FEF05F07DEF70
:100AEC0005F00A52D8B47DEF05F07FEF05F0D88001
:0E0AFC001200D8901200D880D8841200120088
:100B0A000B6A0A6A096A00500402F4CF09F0F3CFAB
:100B1A0008F001500502F4CF0BF0F3CF0AF00050B1
:100B2A000502F3500926F4500A22E86A0B22015002
:100B3A000402F3500926F4500A22E86A0B2208C07C
:100B4A0000F009C001F00AC002F00BC003F0120065
:100B5A0003500718D8A4C1EF05F002500618D8A40C
:100B6A00C1EF05F001500518D8A4C1EF05F00050F7
:0E0B7A000418D8B4D8841200D89412001200C7
:100B88000401A751390806E3300EA75D03E3010EFF
:080B9800006E01D0006A12009A
:100BA0000B6A0A6A096A086A0E6A03340836045036
:100BB000085E0550D8A0053C095E0650D8A0063C4A
:100BC0000A5E0750D8A0073C0B5EE86AD8A0010E69
:100BD0000E5E0336070E0C6E0334083609360A36ED
:100BE0000B360E36045003A012D0085E0550D8A074
:100BF000053C095E0650D8A0063C0A5E0750D8A006
:100C0000073C0B5EE86AD8A0010E0E5E11D00826E4
:100C10000550D8B0053C09260650D8B0063C0A2637
:100C20000750D8B0073C0B26E86AD8B0010E0E2654
:100C300003360C2ED1D70234083609360A360B3665
:100C40000E36045003A012D0085E0550D8A0053C13
:100C5000095E0650D8A0063C0A5E0750D8A0073CA3
:100C60000B5EE86AD8A0010E0E5E11D00826055072
:100C7000D8B0053C09260650D8B0063C0A260750D5
:100C8000D8B0073C0B26E86AD8B0010E0E26023613
:100C9000070E0C6E0234083609360A360B360E364D
:100CA000045002A012D0085E0550D8A0053C095E91
:100CB0000650D8A0063C0A5E0750D8A0073C0B5E41
:100CC000E86AD8A0010E0E5E11D008260550D8B0F3
:100CD000053C09260650D8B0063C0A260750D8B075
:100CE000073C0B26E86AD8B0010E0E2602360C2E01
:100CF000D1D70134083609360A360B360E36045081
:100D000002A012D0085E0550D8A0053C095E06502E
:100D1000D8A0063C0A5E0750D8A0073C0B5EE86AE4
:100D2000D8A0010E0E5E11D008260550D8B0053CA3
:100D300009260650D8B0063C0A260750D8B0073C12
:100D40000B26E86AD8B0010E0E260136070E0C6E8F
:100D50000134083609360A360B360E36045001A027
:100D600012D0085E0550D8A0053C095E0650D8A0F8
:100D7000063C0A5E0750D8A0073C0B5EE86AD8A084
:100D8000010E0E5E11D008260550D8B0053C09268C
:100D90000650D8B0063C0A260750D8B0073C0B26B0
:100DA000E86AD8B0010E0E2601360C2ED1D70034D9
:100DB000083609360A360B360E36045001A012D01A
:100DC000085E0550D8A0053C095E0650D8A0063C38
:100DD0000A5E0750D8A0073C0B5EE86AD8A0010E57
:100DE0000E5E11D008260550D8B0053C09260650E5
:100DF000D8B0063C0A260750D8B0073C0B26E86A54
:100E0000D8B0010E0E260036070E0C6E00340836E0
:100E100009360A360B360E36045000A012D0085E92
:100E20000550D8A0053C095E0650D8A0063C0A5ED5
:100E30000750D8A0073C0B5EE86AD8A0010E0E5EF2
:100E400011D008260550D8B0053C09260650D8B068
:100E5000063C0A260750D8B0073C0B26E86AD8B0F3
:100E6000010E0E2600360C2ED1D700B00ED0045045
:100E700008260550D8B0053C09260650D8B0063CD7
:0C0E80000A260750D8B0073C0B261200D1
:080E8C00067E40EC02F01200AA
:100E94006E0E0401A75DD8A0C6D0640E046EA7C46C
:100EA40000F0FFDC120E0024056E066A000E062216
:100EB40005C000F006C001F0000E06BEFF0E026E73
:100EC400036E003600900136023603360036009079
:100ED400013602360336F60E0024F66E660E012045
:100EE400F76E000E0220F86E0900F5CF00F009003D
:100EF400F5CF01F00900F5CF02F00900F5CF03F0BA
:100F0400000E046E000E056E000E066E7E0E076E59
:100F1400B0EC01F000C0A8F401C0A9F402C0AAF426
:100F240003C0ABF4640E046EA7C400F0BADC08C0BE
:100F340000F00A0E046EB5DC090E0024056E066A84
:100F4400000E062205C000F006C001F0000E06BE29
:100F5400FF0E026E036E0036009001360236033631
:100F640000360090013602360336F60E0024F66E83
:100F7400660E0120F76E000E0220F86E0900F5CF10
:100F840000F00900F5CF01F00900F5CF02F00900E7
:100F9400F5CF03F0A8C404F0A9C405F0AAC406F070
:100FA400ABC407F0B0EC01F000C0A8F401C0A9F490
:100FB40002C0AAF403C0ABF40A0E046EA7C400F086
:100FC40070DC08C000F000C001F0000E026E036E79
:100FD400046E013601900236033604360136019060
:100FE400023603360436F60E0124F66E660E02202F
:100FF400F76E000E0320F86E0900F5CF00F009002B
:10100400F5CF01F00900F5CF02F00900F5CF03F0A8
:10101400A8C404F0A9C405F0AAC406F0ABC407F040
:10102400B0EC01F0B0D0A7510A08D8B07DD00A0EB8
:10103400046EA7C400F035DC090E0024056E066AB0
:10104400000E062205C000F006C001F0000E06BE28
:10105400FF0E026E036E0036009001360236033630
:1010640000360090013602360336F60E0024F66E82
:10107400660E0120F76E000E0220F86E0900F5CF0F
:1010840000F00900F5CF01F00900F5CF02F00900E6
:10109400F5CF03F0000E046E000E056E000E066E12
:1010A4007E0E076EB0EC01F000C0A8F401C0A9F4F4
:1010B40002C0AAF403C0ABF40A0E046EA7C400F085
:1010C40053EC04F008C000F000C001F0000E026E02
:1010D400036E046E0136019002360336043601367F
:1010E4000190023603360436F60E0124F66E660EBF
:1010F4000220F76E000E0320F86E0900F5CF00F011
:101104000900F5CF01F00900F5CF02F00900F5CF91
:1011140003F0A8C404F0A9C405F0AAC406F0ABC443
:1011240007F0B0EC01F02FD0A7C400F0000E016E60
:10113400026E036E00360090013602360336003626
:101144000090013602360336F60E0024F66E660E63
:101154000120F76E000E0220F86E0900F5CF00F0B2
:101164000900F5CF01F00900F5CF02F00900F5CF31
:1011740003F0000E046E000E056E000E066E7E0E69
:08118400076EB0EC01F012004F
:10118C000B6A0C6A086A0350D8B44AEF09F002C023
:10119C000AF0028E9E0E035E03AE3AEF09F0036C6A
:1011AC00080E035CD8A007EF09F0036E083600C0E8
:1011BC0008F001C000F002C001F0026A080E035CE6
:1011CC00D8A007EF09F0036E083600C008F001C084
:1011DC0000F0016A080E035CD8A007EF09F0036E5B
:1011EC00083600C008F0006A080E035CD8A007EFB0
:1011FC0009F0036E0836086A0350D8A4D89013EF90
:10120C0009F00350D8B413EF09F0D8900232013230
:10121C0000320832032E0BEF09F00BBC08A024EFB0
:10122C0009F0D8A024EF09F0082AD8B4002AD8B4C1
:10123C00012AD8B4022A02BE4EEF09F00AAE4AEFD8
:10124C0009F0021E011E001E081E082AD8B4002A2E
:10125C00D8B4012AD8B4022A4AEF09F0026A016A0A
:10126C00006A086A4AEF09F00B800BAE55EF09F0E3
:10127C00026A0AAE55EF09F0026E016E006E086E3E
:10128C000A36023255EF09F00C6A000E56EF09F0DF
:10129C00010E0C6E000E9EEC01F056EF09F0FF0EE5
:1012AC000250036E0150026E0050016E0850006E29
:0212BC0012001E
:1012BE00800E0401A719006E800E000A005CD8B0E3
:1012CE006DD1A7510008016E01C0A7F4800E011860
:1012DE00006E800E6E0A005CD8A0C0D0640E046E44
:1012EE00A7C400F023EC01F0120E0024056E000ED0
:1012FE0000BEFF0E066E000E062205C000F006C0F0
:10130E0001F0000E06BEFF0E026E036E0036009058
:10131E0001360236033600360090013602360336A9
:10132E00F60E0024F66E660E0120F76E000E0220F9
:10133E00F86E0900F5CFA8F40900F5CFA9F409005D
:10134E00F5CFAAF40900F5CFABF4640E046EA7C472
:10135E0000F023EC01F008C000F00A0E046E23EC3E
:10136E0001F0090E0024056E000E00BEFF0E066E83
:10137E00000E062205C000F006C001F0000E06BEEB
:10138E00FF0E026E036E00360090013602360336F3
:10139E0000360090013602360336F60E0024F66E45
:1013AE00660E0120F76E000E0220F86E0900F5CFD2
:1013BE0000F00900F5CF01F00900F5CF02F00900A9
:1013CE00F5CF03F0A8C404F0A9C405F0AAC406F032
:1013DE00ABC407F0B0EC01F000C0A8F401C0A9F452
:1013EE0002C0AAF403C0ABF40A0E046EA7C400F048
:1013FE0023EC01F008C000F000C001F0000E00BEAA
:10140E00FF0E026E036E046E013601900236033635
:10141E00043601360190023603360436F60E0124E8
:10142E00F66E660E0220F76E000E0320F86E0900AF
:10143E00F5CF00F00900F5CF01F00900F5CF02F06D
:10144E000900F5CF03F0A8C404F0A9C405F0AAC49E
:10145E0006F0ABC407F0B0EC01F007D2800E0A0A1A
:10146E00006E800EA719005C71E20A0E046EA7C40E
:10147E0000F023EC01F0090E0024056E000E00BEF4
:10148E00FF0E066E000E062205C000F006C001F02B
:10149E00000E06BEFF0E026E036E00360090013681
:1014AE000236033600360090013602360336F60E4B
:1014BE000024F66E660E0120F76E000E0220F86E06
:1014CE000900F5CFA8F40900F5CFA9F40900F5CF6E
:1014DE00AAF40900F5CFABF40A0E046EA7C400F00F
:1014EE0023EC01F008C000F000C001F0000E00BEB9
:1014FE00FF0E026E036E046E013601900236033645
:10150E00043601360190023603360436F60E0124F7
:10151E00F66E660E0220F76E000E0320F86E0900BE
:10152E00F5CF00F00900F5CF01F00900F5CF02F07C
:10153E000900F5CF03F0A8C404F0A9C405F0AAC4AD
:10154E0006F0ABC407F0B0EC01F08FD1A7C400F0E9
:10155E00000EA7BFFF0E016E026E036E00360090E6
:10156E000136023603360036009001360236033657
:10157E00F60E0024F66E660E0120F76E000E0220A7
:10158E00F86E0900F5CF00F00900F5CF01F0090063
:10159E00F5CF02F00900F5CF03F067D1800EA71941
:1015AE00006E800E6E0A005CD8A0C0D0640E046E71
:1015BE00A7C400F023EC01F0120E0024056E000EFD
:1015CE0000BEFF0E066E000E062205C000F006C01D
:1015DE0001F0000E06BEFF0E026E036E0036009086
:1015EE0001360236033600360090013602360336D7
:1015FE002A0E0024F66E670E0120F76E000E0220F2
:10160E00F86E0900F5CFA8F40900F5CFA9F409008A
:10161E00F5CFAAF40900F5CFABF4640E046EA7C49F
:10162E0000F023EC01F008C000F00A0E046E23EC6B
:10163E0001F0090E0024056E000E00BEFF0E066EB0
:10164E00000E062205C000F006C001F0000E06BE18
:10165E00FF0E026E036E0036009001360236033620
:10166E00003600900136023603362A0E0024F66E3E
:10167E00670E0120F76E000E0220F86E0900F5CFFE
:10168E0000F00900F5CF01F00900F5CF02F00900D6
:10169E00F5CF03F0A8C404F0A9C405F0AAC406F05F
:1016AE00ABC407F0B0EC01F000C0A8F401C0A9F47F
:1016BE0002C0AAF403C0ABF40A0E046EA7C400F075
:1016CE0023EC01F008C000F000C001F0000E00BED7
:1016DE00FF0E026E036E046E013601900236033663
:1016EE000436013601900236033604362A0E0124E2
:1016FE00F66E670E0220F76E000E0320F86E0900DC
:10170E00F5CF00F00900F5CF01F00900F5CF02F09A
:10171E000900F5CF03F0A8C404F0A9C405F0AAC4CB
:10172E0006F0ABC407F0B0EC01F09FD0800E0A0AB1
:10173E00006E800EA719005C71E20A0E046EA7C43B
:10174E0000F023EC01F0090E0024056E000E00BE21
:10175E00FF0E066E000E062205C000F006C001F058
:10176E00000E06BEFF0E026E036E003600900136AE
:10177E0002360336003600900136023603362A0E44
:10178E000024F66E670E0120F76E000E0220F86E32
:10179E000900F5CFA8F40900F5CFA9F40900F5CF9B
:1017AE00AAF40900F5CFABF40A0E046EA7C400F03C
:1017BE0023EC01F008C000F000C001F0000E00BEE6
:1017CE00FF0E026E036E046E013601900236033672
:1017DE000436013601900236033604362A0E0124F1
:1017EE00F66E670E0220F76E000E0320F86E0900EB
:1017FE00F5CF00F00900F5CF01F00900F5CF02F0AA
:10180E000900F5CF03F0A8C404F0A9C405F0AAC4DA
:10181E0006F0ABC407F0B0EC01F027D0A7C400F07F
:10182E00000EA7BFFF0E016E026E036E0036009013
:10183E000136023603360036009001360236033684
:10184E002A0E0024F66E670E0120F76E000E02209F
:10185E00F86E0900F5CF00F00900F5CF01F0090090
:0C186E00F5CF02F00900F5CF03F01200E6
:10187A000450000A12E10550000A0FE10650000A5E
:10188A000CE10750000A09E1FF0E006EFF0E016E1F
:10189A007F0E026EFF0E036EA8D0086A096A07500F
:1018AA00D8B4E8EF0CF00350D8B4EDEF0CF00250C6
:1018BA0006180A6E028E068E0E6A02C008F001C071
:1018CA000CF000C00DF004500D5E0550D8A0053C88
:1018DA000C5E0650D8A0063C085E086A0C6A0D6ABF
:1018EA00D8A07FEF0CF0D8900232013200320832D1
:1018FA00010E0E6E0750035ED8A08CEF0CF07E0E20
:10190A000E240326D8B0F2EF0CF092EF0CF07E0E04
:10191A000E240326D8A0F7EF0CF0180E0B6E0D3626
:10192A000C3608360036013602360E360450005E92
:10193A000550D8A0053C015E0650D8A0063C025EC0
:10194A0006340E120EA0ADEF0CF00D80B8EF0CF0BD
:10195A00045000260550D8B0053C01260650D8B0E0
:10196A00062802260D900B2E94EF0CF0DEEF0CF0F9
:10197A00D8900036013602360E360450005E055005
:10198A00D8A0053C015E0650D8A0063C025E06348B
:10199A000E10010B0D26D8B00C2AD8B4082AD8A4E8
:1019AA00DEEF0CF008320C320D32032AD8B4F2EF13
:1019BA000CF00AAE089E0850026E0C50016E0D50D3
:1019CA00006EFAEF0CF0010EACEC01F0FAEF0CF03D
:1019DA00020E1AEC00F0FAEF0CF0040E0EEC00F016
:0C19EA00FAEF0CF0080E21EC00F01200E7
:1019F6000050086E0150006E0250016E0350026ED8
:101A0600036A0B6A0C6A9E0E036E0A6A020E0C6E5D
:061A160032EC00F01200AA
:101A1C000B6A0C6A0A6A086A0350D8B496EF0DF088
:101A2C00028E9E0E035E03BE21EF0DF0D8B421EFA3
:101A3C000DF086EF0DF0036C080E035CD8A053EF8D
:101A4C000DF0036E083600C008F001C000F002C0B3
:101A5C0001F0026A080E035CD8A053EF0DF0036E80
:101A6C00083600C008F001C000F0016A080E035CE3
:101A7C00D8A053EF0DF0036E083600C008F0006AD2
:101A8C00080E035CD8A053EF0DF0036E0836086AFD
:101A9C000350D8A4D8905FEF0DF00350D8B45FEF8B
:101AAC000DF0D8900232013200320832032E57EF7B
:101ABC000DF00BBC08A070EF0DF0D8A070EF0DF07E
:101ACC00082AD8B4002AD8B4012AD8B4022A02BEF3
:101ADC009AEF0DF00AAE96EF0DF0021E011E001EDD
:101AEC00081E082AD8B4002AD8B4012AD8B4022A6D
:101AFC0096EF0DF0026A016A006A086A96EF0DF023
:101B0C000B800BAEA0EF0DF0026A0AAEA0EF0DF049
:101B1C00026E016E006E086E0A360232A0EF0DF0F6
:101B2C00000E0C6AA1EF0DF0010E0C6E9EEC01F094
:101B3C00A1EF0DF0FF0E0250036E0150026E00502B
:081B4C00016E0850006E12004A
:101B5400E00E04017F15016E01C086F40150600897
:101B640037E386510301DA1925E004018651000A9E
:101B740005E1C00EA76F12EC05F01AD004018651DE
:101B8400200A05E1C20EA76F12EC05F011D0040182
:101B94008651400A05E1C40EA76F12EC05F008D087
:101BA40004018651600A04E1C60EA76F12EC05F029
:101BB40086C4DAF31F0E04017F15006E400E001078
:101BC400A76F80C4A8F481C4A9F4F2EC04F013D084
:101BD4007FC482F480C483F481C484F4220E04019B
:101BE400A76F82C4A8F483C4A9F484C4AAF485C4E6
:081BF400ABF4C5EC04F0120093
:101BFC00E00E04017F15016E01C081F40150030158
:101C0C00DA1925E004018151000A05E1C00EA76F25
:101C1C0012EC05F01AD004018151200A05E1C20E24
:101C2C00A76F12EC05F011D004018151400A05E1B7
:101C3C00C40EA76F12EC05F008D004018151600AA4
:101C4C0004E1C60EA76F12EC05F081C4DAF31F0E87
:101C5C0004017F15006EA00E0010A76F80C4A8F4BD
:0A1C6C00000EA96FF2EC04F0120064
:101C7600E00E04017F15016E01C086F40150600874
:101C860036E386510301DA1925E004018651000A7C
:101C960005E1C00EA76F12EC05F01AD004018651BB
:101CA600200A05E1C20EA76F12EC05F011D004015F
:101CB6008651400A05E1C40EA76F12EC05F008D064
:101CC60004018651600A04E1C60EA76F12EC05F006
:101CD60086C4DAF31F0E04017F15A76FA86BA96BE4
:101CE600F2EC04F000C084F401C085F417D0200E95
:101CF6000401A76F7FC4A8F4000EA96FAA6FAB6F8B
:101D0600C5EC04F000C080F401C081F402C082F486
:101D160003C083F481C484F482C485F484C400F0CF
:061D260085C401F012006B
:101D2C0004019F6BA06B936B946B81C400F082C415
:101D3C0001F083C402F0010E8127000E822383235D
:101D4C0000C0F6FF01C0F7FF02C0F8FF0900F5CF95
:101D5C0000F000C090F40052D8B4A6EF1EF09051E1
:101D6C00250A0BE07FC4E1FF80C4E2FF90C4E6FFCC
:101D7C007F4B802B9F4BA02BD8D7916B926B936B87
:101D8C00946B23D09387010E8127000E822383232B
:101D9C0059D09381010E8127000E8223832352D0C8
:101DAC009383010E8127000E822383234BD09487CB
:101DBC00010E8127000E8223832344D09385010ECC
:101DCC008127000E822383233DD081C4F6FF82C479
:101DDC00F7FF83C4F8FF0900F5CF01F001502D0A7D
:101DEC00D1E081C4F6FF82C4F7FF83C4F8FF090079
:101DFC00F5CF01F00150200ACCE081C4F6FF82C47B
:101E0C00F7FF83C4F8FF0900F5CF01F001502B0A4E
:101E1C00C7E081C4F6FF82C4F7FF83C4F8FF090052
:101E2C00F5CF01F00150230AC2E081C4F6FF82C451
:101E3C00F7FF83C4F8FF0900F5CF01F00150300A19
:101E4C00BDE001D09ED793A301D0939193A701D06D
:101E5C00939581C4F6FF82C4F7FF83C4F8FF090091
:101E6C00F5CF00F0000E016E00C0A7F4C4EC05F035
:101E7C00005236E0916B926B91C400F092C401F069
:101E8C000A0E046E000E056E85EC05F081C4F6FF9B
:101E9C0082C4F7FF83C4F8FF0900F5CF02F00250AB
:101EAC000024916F000E0120926F300E915F000E96
:101EBC00925B010E8127000E8223832381C4F6FFDF
:101ECC0082C4F7FF83C4F8FF0900F5CF00F0000EC1
:101EDC00016E00C0A7F4C4EC05F00052CDE133D084
:101EEC0081C4F6FF82C4F7FF83C4F8FF0900F5CF65
:101EFC0001F001502A0A27E184C4E9FF85C4EAFFF6
:101F0C00EECF00F0EECF01F000C0E9FF01C0EAFF18
:101F1C00EECF91F4EECF92F484C4E9FF85C4EAFFCE
:101F2C00020EEE24006E000EEE20016E84C4E1FF62
:101F3C0085C4E2FF00C0E6FF01C0E6FF010E812769
:101F4C00000E8223832381C4F6FF82C4F7FF83C46F
:101F5C00F8FF0900F5CF01F001502E0A70E1010ED7
:101F6C008127000E8223832381C4F6FF82C4F7FFEE
:101F7C0083C4F8FF0900F5CF01F001502A0A28E1CB
:101F8C0084C4E9FF85C4EAFFEECF00F0EECF01F088
:101F9C0000C0E9FF01C0EAFFEECF8EF4EECF8FF464
:101FAC0084C4E9FF85C4EAFF020EEE24006E000E25
:101FBC00EE20016E84C4E1FF85C4E2FF00C0E6FFA1
:101FCC0001C0E6FF010E8127000E8223832336D049
:101FDC008E6B8F6B81C4F6FF82C4F7FF83C4F8FF4E
:101FEC000900F5CF00F0000E016E00C0A7F4C4ECA0
:101FFC0005F0005223E08EC400F08FC401F00A0EED
:10200C00046E000E056E85EC05F081C4F6FF82C4EB
:10201C00F7FF83C4F8FF0900F5CF02F0025000244B
:10202C008E6F000E01208F6F300E8E5F000E8F5B57
:10203C00010E8127000E82238323CCD703D08E6B15
:10204C008F6B948981C400F082C401F083C402F0C8
:10205C00010E8127000E8223832300C0F6FF01C0EE
:10206C00F7FF02C0F8FF0900F5CF90F4F9D09FC438
:10207C0000F0A0C401F0AAEF1EF09389E3D7948579
:10208C002ED1938B94812BD1948329D1938D27D1ED
:10209C0026D1938B938F23D184C4E9FF85C4EAFFA7
:1020AC00EECF00F0EECF01F000C0E9FF01C0EAFF77
:1020BC00EECF9BF4EECF9CF484C4E9FF85C4EAFF19
:1020CC00020EEE24006E000EEE20016E84C4E1FFC1
:1020DC0085C4E2FF00C0E6FF01C0E6FF000E9C19BC
:1020EC0002E1000E9B1904E1F10E9B6F000E9C6F38
:1020FC009D6B9E6B9D519B25E96E9E519C21EA6EBA
:10210C00EE520BE0010E9D25006E000E9E21016E1D
:10211C0000C09DF401C09EF4EDD78E518F110AE0E2
:10212C009E518F5D02E19D518E5D04E28EC49DF443
:10213C008FC49EF492519E5D02E191519D5D05E22A
:10214C009D51915F9E51925B02D0916B926B93B7B4
:10215C0016D091C400F092C401F0010E915F000EF4
:10216C00925B005001100BE07FC4E1FF80C4E2FFE2
:10217C00200EE66E7F4B802B9F4BA02BEAD79DC485
:10218C0002F09EC403F0010E9D5D006E000E9E5980
:10219C00016E00C09DF401C09EF40250031019E0C2
:1021AC009BC4E9FF9CC4EAFF7FC4E1FF80C4E2FF4B
:1021BC00EECFE6FF7F4B802B010E9B25006E000EB1
:1021CC009C21016E00C09BF401C09CF49F4BA02B82
:1021DC00D6D793A716D091C400F092C401F0010E8B
:1021EC00915F000E925B005001100BE07FC4E1FF89
:1021FC0080C4E2FF200EE66E7F4B802B9F4BA02B02
:10220C00EAD793D584C4E9FF85C4EAFFEECF00F08A
:10221C00EECF01F000C0E9FF01C0EAFFEECF90F471
:10222C0084C4E9FF85C4EAFF020EEE24006E000EA2
:10223C00EE20016E84C4E1FF85C4E2FF00C0E6FF1E
:10224C0001C0E6FF900E9B6F040E9C6F010E9D6FFC
:10225C00000E9E6F62D7C00E9313000E94133FD0E6
:10226C009051000AD8B403D790516C0AD8B405D752
:10227C0090514C0AD8B401D79051660AD8B4FFD605
:10228C009051450AD8B4FDD69051650AD8B4FAD607
:10229C009051670AD8B4F8D690516F0AD8B4F6D6D4
:1022AC009051640AD8B4F4D69051690AD8B4F0D6D7
:1022BC009051700AD8B4EDD69051580AD8B4E9D6DA
:1022CC009051780AD8B4E6D69051730AD8B4E4D6B3
:1022DC009051630A97E09051750ABDE0B3D7000E98
:1022EC009315006E9451070B016E00500110D8B479
:1022FC004DEF1AF094A904D0060E8E6F000E8F6F5E
:10230C0084C4E9FF85C4EAFFEECF00F0EECF01F004
:10231C0000C0E9FF01C0EAFFEECF95F4EECF96F4D2
:10232C00EECF97F4EECF98F484C4E9FF85C4EAFFAE
:10233C00040EEE24006E000EEE20016E84C4E1FF4C
:10234C0085C4E2FF00C0E6FF01C0E6FF046A056A2F
:10235C00066A076A95C400F096C401F097C402F0AF
:10236C0098C403F01EEC05F0010ED8B0000E006E00
:10237C00005205E0977F030E9313000E9413996B94
:10238C009A6B95C400F096C401F097C402F098C4FF
:10239C0003F0046A056A066A076AADEC05F0000EE4
:1023AC00D8A4010E006E0052D8B48AD098C400F0A4
:1023BC00016A026A036AFF0E0016000E01167E0EF9
:1023CC00005E000E015A00C099F401C09AF4010E8F
:1023DC00005E000E015A00C099F401C09AF4030E7D
:1023EC00046E000E056E85EC05F000C099F401C07A
:1023FC009AF40A0E046E000E056E62EC04F000C036
:10240C0099F401C09AF4800E0118026E800E025CE1
:10241C0002E1000E005C05E2010E0401995F000E62
:10242C009A5B040199510008A76F5FEC09F095C401
:10243C0004F096C405F097C406F098C407F0B0EC0D
:10244C0001F000C09BF401C09CF402C09DF403C0D9
:10245C009EF4000E046E000E056E000E066E7F0ECE
:10246C00076E9BC400F09CC401F09DC402F09EC496
:10247C0003F01EEC05F0010ED8B0000E006E0052F9
:10248C0005E0010E995F000E9A5B1AD0000E046EE7
:10249C00000E056E200E066E820E076E9BC400F0B9
:1024AC009CC401F09DC402F09EC403F01EEC05F028
:1024BC00000ED8B0010E006E005202E0994B9A2B20
:1024CC00800E006E800E9A19005C02E19951000892
:1024DC0003E3010E906F02D099C490F494B118D01C
:1024EC0094A315D0800E9A19006E7F0E005C02E149
:1024FC00FC0E995D0BE3800E9A19006E800E8F19FD
:10250C00005C02E18E51995D01E201D001D0F1D362
:10251C008E518F1106E094A304D0010E8E5F000E35
:10252C008F5B000E006E8F51005C02E18E5108082B
:10253C0003E2080E906F02D08EC490F495C400F0A4
:10254C0096C401F097C402F098C403F0046A056ABB
:10255C00066A076AADEC05F0000ED8A4010E006EF9
:10256C000052D8B44BD199C4A7F45FEC09F000C069
:10257C0004F001C005F002C006F003C007F095C4DA
:10258C0000F096C401F097C402F098C403F03DEC3F
:10259C000CF000C095F401C096F402C097F403C08F
:1025AC0098F4040190510008A76F5FEC09F000C08B
:1025BC0004F001C005F002C006F003C007F095C49A
:1025CC0000F096C401F097C402F098C403F03DECFF
:1025DC000CF000C0A1F401C0A2F402C0A3F403C02B
:1025EC00A4F4A1C495F4A2C496F4A3C497F4A4C40F
:1025FC0098F4A1C400F0A2C401F0A3C402F0A4C4D6
:10260C0003F00EEC0DF0FBEC0CF000C004F001C07C
:10261C0005F002C006F003C007F0A1C400F0A2C48C
:10262C0001F0A3C402F0A4C403F046EC07F0000EC2
:10263C00046E000E056E000E066E7E0E076E1EEC0E
:10264C0005F0000ED8B0010E006E00521AE095C4D1
:10265C0000F096C401F097C402F098C403F0000E89
:10266C00046E000E056E000E066E7E0E076E40ECBC
:10267C0002F000C095F401C096F402C097F403C0B8
:10268C0098F495C400F096C401F097C402F098C475
:10269C0003F00EEC0DF004019051010F096E0A6A63
:1026AC00000E0A2209C004F00AC005F0000E0ABE92
:1026BC00FF0E066E076E0436049005360636073696
:1026CC00043604900536063607368E0E0424F66E54
:1026DC00670E0520F76E000E0620F86E0900F5CF88
:1026EC0005F00900F5CF06F00900F5CF07F0090059
:1026FC00F5CF08F00850035C08E10750025C05E1D7
:10270C000650015C02E10550005C1EE3040195C417
:10271C0000F096C401F097C402F098C403F0CD0EFB
:10272C00046ECC0E056E4C0E066E7B0E076EB0EC76
:10273C0001F000C095F401C096F402C097F403C0F8
:10274C0098F4994B9A2B5AD095C400F096C401F08A
:10275C0097C402F098C403F00EEC0DF090C404F092
:10276C00000E056E066E076E0436049005360636AE
:10277C000736043604900536063607368E0E0424CA
:10278C00F66E670E0520F76E000E0620F86E090037
:10279C00F5CF05F00900F5CF06F00900F5CF07F0ED
:1027AC000900F5CF08F00850035C08E10750025C03
:1027BC0005E10650015C02E10550005C1FE20401DA
:1027CC0095C400F096C401F097C402F098C403F0CD
:1027DC00000E046E000E056E200E066E820E076E45
:1027EC00B0EC01F000C095F401C096F402C097F46F
:1027FC0003C098F4010E995F000E9A5B040194A338
:10280C0093D094B791D0800E000A006E800E8F1971
:10281C00005C02E18E510A0804E20A0E8E6F000E73
:10282C008F6F95C400F096C401F097C402F098C461
:10283C0003F00EEC0DF000C09BF401C09CF402C040
:10284C009DF403C09EF49B519C119D119E1142E07E
:10285C000A0E046E000E056E066E076E9BC400F029
:10286C009CC401F09DC402F09EC403F0D0EC05F0B2
:10287C0008C000F009C001F00AC002F00BC003F060
:10288C00000E046E031808E10450021805E1045010
:10289C00011802E10050000A1DE1010E8E5F000ECE
:1028AC008F5B0A0E046E000E056E066E076E9BC4DF
:1028BC0000F09CC401F09DC402F09EC403F0D0EC67
:1028CC0005F000C09BF401C09CF402C09DF403C051
:1028DC009EF4B9D7800E8F19006E800E005C02E159
:1028EC0090518E5D21E28E51905DA76F5FEC09F0E7
:1028FC0000C004F001C005F002C006F003C007F0F0
:10290C0095C400F096C401F097C402F098C403F08B
:10291C003DEC0CF000C095F401C096F402C097F4A5
:10292C0003C098F48EC490F4050E04018E25006E3D
:10293C00000E8F21016E0050915F0150925B8E5101
:10294C008F1103E194B701D004D0010E915F000EFA
:10295C00925B030E9315006E94C401F0000E0116E9
:10296C000050011004E0010E915F000E925B93A5E4
:10297C0039D093A312D093A103D02D0E866F02D021
:10298C002B0E866F7FC4E1FF80C4E2FF86C4E6FF96
:10299C007F4B802B9F4BA02B0CD093A10AD07FC4D4
:1029AC00E1FF80C4E2FF200EE66E7F4B802B9F4B35
:1029BC00A02B800E006E800E9219005C02E19151EA
:1029CC0000080FE27FC4E1FF80C4E2FF300EE66E28
:1029DC007F4B802B9F4BA02B010E915F000E925BC7
:1029EC00E8D73AD093B718D0800E006E800E9219AB
:1029FC00005C02E1915100080FE27FC4E1FF80C44A
:102A0C00E2FF200EE66E7F4B802B9F4BA02B010E1E
:102A1C00915F000E925BE8D793A312D093A103D0E1
:102A2C002D0E876F02D02B0E876F7FC4E1FF80C401
:102A3C00E2FF87C4E6FF7F4B802B9F4BA02B0CD073
:102A4C0093A10AD07FC4E1FF80C4E2FF200EE66EA2
:102A5C007F4B802B9F4BA02B95C400F096C401F0AC
:102A6C0097C402F098C403F00EEC0DF000C09BF478
:102A7C0001C09CF402C09DF403C09EF490C400F00D
:102A8C00000E016E026E036E0036009001360236A7
:102A9C000336003600900136023603368E0E0024C3
:102AAC00F66E670E0120F76E000E0220F86E09001C
:102ABC00F5CF04F00900F5CF05F00900F5CF06F0CD
:102ACC000900F5CF07F09BC400F09CC401F09DC435
:102ADC0002F09EC403F0D0EC05F0300E00267FC44B
:102AEC00E1FF80C4E2FF00C0E6FF7F4B802B9F4BD1
:102AFC00A02B8E518F1103E194B701D06FD07FC4FE
:102B0C00E1FF80C4E2FF2E0EE66E7F4B802B9F4BC5
:102B1C00A02B90518E5F000E8F5B90534DE0900771
:102B2C0090C400F0000E016E026E036E0036009031
:102B3C000136023603360036009001360236033673
:102B4C008E0E0024F66E670E0120F76E000E02202A
:102B5C00F86E0900F5CF04F00900F5CF05F0090077
:102B6C00F5CF06F00900F5CF07F09BC400F09CC42C
:102B7C0001F09DC402F09EC403F0D0EC05F00A0EE7
:102B8C00046E000E056E066E076ED0EC05F008C0E4
:102B9C0000F009C001F00AC002F00BC003F0300EC7
:102BAC0000267FC4E1FF80C4E2FF00C0E6FF7F4B3C
:102BBC00802B9F4BA02BB1D78E518F110FE07FC470
:102BCC00E1FF80C4E2FF300EE66E7F4B802B9F4B03
:102BDC00A02B010E8E5F000E8F5BEED793AB0BD04C
:102BEC007FC4E1FF80C4E2FF450EE66E7F4B802B75
:102BFC009F4BA02B0AD07FC4E1FF80C4E2FF650E7F
:102C0C00E66E7F4B802B9F4BA02B800E9A19006E8B
:102C1C00800E005C02E1000E995D11E299510008F2
:102C2C00996F9A51000E9A577FC4E1FF80C4E2FF5E
:102C3C002D0EE66E7F4B802B9F4BA02B0AD07FC4B2
:102C4C00E1FF80C4E2FF2B0EE66E7F4B802B9F4B87
:102C5C00A02B0A0E046E000E056E99C400F09AC4E7
:102C6C0001F062EC04F0300E00267FC4E1FF80C45A
:102C7C00E2FF00C0E6FF04017F4B802B9F4BA02B93
:102C8C000A0E046E000E056E99C400F09AC401F091
:102C9C0062EC04F008C000F009C001F0300E002610
:102CAC007FC4E1FF80C4E2FF00C0E6FF04017F4B5C
:102CBC00802B9F4BA02B93A71AD0800E006E800EFA
:102CCC009219005C02E19151000811E27FC4E1FF0E
:102CDC0080C4E2FF200EE66E7F4B802B9F4BA02B17
:102CEC00010E915F000E925B91519211EFE19BEFFF
:102CFC000EF094A3F3D0800E9A19006E800E005C37
:102D0C0002E1000E995D0AE2010E995D006E000E63
:102D1C009A59016E00508E5F01508F5B95C400F084
:102D2C0096C401F097C402F098C403F00EEC0DF0B9
:102D3C0000C09BF401C09CF402C09DF403C09EF43F
:102D4C00010E906F90510A0A34E090C400F0000E0E
:102D5C00016E026E036E00360090013602360336A9
:102D6C00003600900136023603368E0E0024F66EC5
:102D7C00670E0120F76E000E0220F86E0900F5CFE9
:102D8C0001F00900F5CF02F00900F5CF03F00900BE
:102D9C00F5CF04F004509E5D08E103509D5D05E104
:102DAC0002509C5D02E101509B5D01E202D0902B30
:102DBC00C9D790518E5DA56F000E8F59A66FA5C413
:102DCC008EF4A6C48FF49BC400F09CC401F09DC487
:102DDC0002F09EC403F0FBEC0CF000C004F001C048
:102DEC0005F002C006F003C007F095C400F096C4CD
:102DFC0001F097C402F098C403F046EC07F000C051
:102E0C00A1F401C0A2F402C0A3F403C0A4F4A5C4AD
:102E1C00A7F45FEC09F0A1C404F0A2C405F0A3C4AC
:102E2C0006F0A4C407F0B0EC01F0000E046E000E26
:102E3C00056E000E066E7E0E076E40EC02F00EEC78
:102E4C000DF000C09BF401C09CF402C09DF403C0C3
:102E5C009EF48E518F1142E00A0E046E000E056E28
:102E6C00066E076E9BC400F09CC401F09DC402F07A
:102E7C009EC403F0D0EC05F008C000F009C001F0CE
:102E8C000AC002F00BC003F0000E046E031808E138
:102E9C000450021805E10450011802E10050000A28
:102EAC001DE10A0E046E000E056E066E076E9BC4C5
:102EBC0000F09CC401F09DC402F09EC403F0D0EC61
:102ECC0005F000C09BF401C09CF402C09DF403C04B
:102EDC009EF4010E8E5F000E8F5BBBD7800E006ED2
:102EEC00800E8F19005C02E18E510C0816E38EC423
:102EFC00A7F44AEC07F095C404F096C405F097C407
:102F0C0006F098C407F040EC02F000C095F401C044
:102F1C0096F402C097F403C098F495C400F096C4DC
:102F2C0001F097C402F098C403F0046A056A066ABB
:102F3C00076AADEC05F0000ED8A4010E006E00522D
:102F4C00D8B477D095C400F096C401F097C402F0C1
:102F5C0098C403F00EEC0DF0000E046E031808E19B
:102F6C000450021805E10450011802E10050000A57
:102F7C0060E1800E006E800E9A19005C02E199519E
:102F8C00010857E299C4A7F45FEC09F000C004F003
:102F9C0001C005F002C006F003C007F095C400F0B4
:102FAC0096C401F097C402F098C403F03DEC0CF009
:102FBC005F0E046E700E056E090E066E810E076EA6
:102FCC001EEC05F0010ED8B0000E006E005206E0AB
:102FDC00090E0401995F000E9A5B05D00401080EDE
:102FEC00995F000E9A5B99C4A7F45FEC09F000C0DE
:102FFC0004F001C005F002C006F003C007F095C450
:10300C0000F096C401F097C402F098C403F03DECB4
:10301C000CF00EEC0DF000C09BF401C09CF402C04F
:10302C009DF403C09EF40401956B966B976B986BA3
:10303C0038D095C400F096C401F097C402F098C43F
:10304C0003F00EEC0DF000C09BF401C09CF402C028
:10305C009DF403C09EF49BC400F09CC401F09DC47D
:10306C0002F09EC403F0FBEC0CF000C004F001C0B5
:10307C0005F002C006F003C007F095C400F096C43A
:10308C0001F097C402F098C403F046EC07F000C0BE
:10309C0095F401C096F402C097F403C098F4996BB0
:1030AC009A6B010E906F90510A0A34E090C400F0B4
:1030BC00000E016E026E036E003600900136023671
:1030CC000336003600900136023603368E0E00248D
:1030DC00F66E670E0120F76E000E0220F86E0900E6
:1030EC00F5CF01F00900F5CF02F00900F5CF03F0A0
:1030FC000900F5CF04F004509E5D08E103509D5D7E
:10310C0005E102509C5D02E101509B5D01E202D0A1
:10311C00902BC9D790518E25006E000E8F21016E19
:10312C00995100269A5101220050915F0150925BF7
:10313C0094B704D08E518F1101E104D0010E915F30
:10314C00000E925B030E9315006E94C401F0000EFA
:10315C0001160050011004E0010E915F000E925B0D
:10316C0093A539D093A312D093A103D02D0E886FC1
:10317C0002D02B0E886F7FC4E1FF80C4E2FF88C4AD
:10318C00E6FF7F4B802B9F4BA02B0CD093A10AD03A
:10319C007FC4E1FF80C4E2FF200EE66E7F4B802BE4
:1031AC009F4BA02B800E006E800E9219005C02E1EA
:1031BC00915100080FE27FC4E1FF80C4E2FF300EA2
:1031CC00E66E7F4B802B9F4BA02B010E915F000E68
:1031DC00925BE8D73AD093B718D0800E006E800E71
:1031EC009219005C02E1915100080FE27FC4E1FFEB
:1031FC0080C4E2FF200EE66E7F4B802B9F4BA02BF2
:10320C00010E915F000E925BE8D793A312D093A1AD
:10321C0003D02D0E896F02D02B0E896F7FC4E1FF76
:10322C0080C4E2FF89C4E6FF7F4B802B9F4BA02B11
:10323C000CD093A10AD07FC4E1FF80C4E2FF200E22
:10324C00E66E7F4B802B9F4BA02B90C400F0900719
:10325C0000524CE090C400F0000E016E026E036E42
:10326C0000360090013602360336003600900136E7
:10327C00023603368E0E0024F66E670E0120F76EB2
:10328C00000E0220F86E0900F5CF04F00900F5CF0E
:10329C0005F00900F5CF06F00900F5CF07F09BC447
:1032AC0000F09CC401F09DC402F09EC403F0D0EC6D
:1032BC0005F00A0E046E000E056E066E076ED0EC5D
:1032CC0005F008C000F009C001F00AC002F00BC004
:1032DC0003F0300E00267FC4E1FF80C4E2FF00C083
:1032EC00E6FF7F4B802B9F4BA02BAFD7800E006E41
:1032FC00800E9A19005C02E1995100080FE27FC41C
:10330C00E1FF80C4E2FF300EE66E7F4B802B9F4BBB
:10331C00A02B010E995F000E9A5BE8D7800E000A75
:10332C00006E800E8F19005C02E18E51080803E2DA
:10333C00080E906F02D08EC490F490518E5F000EE8
:10334C008F5B905303E194B701D00AD07FC4E1FFA7
:10335C0080C4E2FF2E0EE66E7F4B802B9F4BA02B82
:10336C0090C4A7F45FEC09F095C404F096C405F082
:10337C0097C406F098C407F0B0EC01F0C6EC08F066
:10338C0000C09BF401C09CF402C09DF403C09EF4E9
:10339C0090534DE0900790C400F0000E016E026E49
:1033AC00036E00360090013602360336003600906C
:1033BC000136023603368E0E0024F66E670E01209F
:1033CC00F76E000E0220F86E0900F5CF04F009002C
:1033DC00F5CF05F00900F5CF06F00900F5CF07F0A1
:1033EC009BC400F09CC401F09DC402F09EC403F089
:1033FC00D0EC05F00A0E046E000E056E066E076E1C
:10340C00D0EC05F008C000F009C001F00AC002F0D1
:10341C000BC003F0300E00267FC4E1FF80C4E2FF36
:10342C0000C0E6FF7F4B802B9F4BA02BB1D78E515A
:10343C008F110FE07FC4E1FF80C4E2FF300EE66E17
:10344C007F4B802B9F4BA02B010E8E5F000E8F5B52
:10345C00EED793A71AD0800E006E800E9219005CE6
:10346C0002E19151000811E27FC4E1FF80C4E2FF48
:10347C00200EE66E7F4B802B9F4BA02B010E915F95
:10348C00000E925B91519211EFE19BEF0EF0C00E8A
:10349C009315016E94C402F0000E0216000E021871
:1034AC0002E1000E0118D8A480D093A927D084C4BF
:1034BC00E9FF85C4EAFFEECF00F0EECF01F000C0CB
:1034CC00E9FF01C0EAFFEECF9BF4EECF9CF4EECF08
:1034DC009DF4EECF9EF484C4E9FF85C4EAFF040E8C
:1034EC00EE24006E000EEE20016E84C4E1FF85C454
:1034FC00E2FF00C0E6FF01C0E6FF2FD084C4E9FF65
:10350C0085C4EAFFEECF00F0EECF01F000C0E9FF7A
:10351C0001C0EAFFEECF00F0EECF01F0000E01BECD
:10352C00FF0E026E036E00C09BF401C09CF402C03F
:10353C009DF403C09EF484C4E9FF85C4EAFF020E27
:10354C00EE24006E000EEE20016E84C4E1FF85C4F3
:10355C00E2FF00C0E6FF01C0E6FF800E9E19006E80
:10356C00800E005C08E1000E9D5D05E1000E9C5D87
:10357C0002E1000E9B5D18E2030E9313000E9413F0
:10358C00006A016A026A036A9B51005E9C51015AEF
:10359C009D51025A9E51035A00C09BF401C09CF4E9
:1035AC0002C09DF403C09EF44ED093A927D084C4CE
:1035BC00E9FF85C4EAFFEECF00F0EECF01F000C0CA
:1035CC00E9FF01C0EAFFEECF9BF4EECF9CF4EECF07
:1035DC009DF4EECF9EF484C4E9FF85C4EAFF040E8B
:1035EC00EE24006E000EEE20016E84C4E1FF85C453
:1035FC00E2FF00C0E6FF01C0E6FF25D084C4E9FF6E
:10360C0085C4EAFFEECF00F0EECF01F000C0E9FF79
:10361C0001C0EAFFEECF9BF4EECF9CF4000E9D6F41
:10362C009E6F84C4E9FF85C4EAFF020EEE24006E8F
:10363C00000EEE20016E84C4E1FF85C4E2FF00C0E1
:10364C00E6FF01C0E6FF000E8F1902E1000E8E1995
:10365C000FE1000E006E9E1908E100509D1905E166
:10366C0000509C1902E19B51000A02E18E4B8F2BFA
:10367C00C00E9315006E00C005F0AED0010E906F19
:10368C0090510A0A34E090C400F0000E016E026EF4
:10369C00036E003600900136023603360036009079
:1036AC000136023603368E0E0024F66E670E0120AC
:1036BC00F76E000E0220F86E0900F5CF01F009003C
:1036CC00F5CF02F00900F5CF03F00900F5CF04F0B7
:1036DC0004509E5D08E103509D5D05E102509C5D28
:1036EC0002E101509B5D01E202D0902BC9D782D040
:1036FC00010E906F9051080A34E090C400F0000E57
:10370C00016E026E036E00360090013602360336EF
:10371C0000360090013602360336B60E0024F66EE3
:10372C00670E0120F76E000E0220F86E0900F5CF2F
:10373C0001F00900F5CF02F00900F5CF03F0090004
:10374C00F5CF04F004509E5D08E103509D5D05E14A
:10375C0002509C5D02E101509B5D01E202D0902B76
:10376C00C9D748D0010E906F90510C0A34E090C428
:10377C0000F0000E016E026E036E003600900136F2
:10378C0002360336003600900136023603365E0EE2
:10379C000024F66E670E0120F76E000E0220F86E04
:1037AC000900F5CF01F00900F5CF02F00900F5CFC3
:1037BC0003F00900F5CF04F004509E5D08E10350BE
:1037CC009D5D05E102509C5D02E101509B5D01E2B3
:1037DC0002D0902BC9D70ED00550000AD8B44ED7C2
:1037EC000550C00AD8B44AD70550800A81E005506C
:1037FC00400AB8E0800E006E800E8F19005C02E16A
:10380C008E51905D03E28EC490F40DD0800E8F1912
:10381C00006E800E005C02E190518E5D04E290C45B
:10382C008EF4000E8F6F915192110EE0030E9315D2
:10383C00006E94C401F0000E01160050011004E05B
:10384C00010E915F000E925B800E8F19006E800E40
:10385C009219005C02E191518E5D05E28E51915FEF
:10386C008F51925B02D0916B926BC40E9315016ECB
:10387C009451080B026E0250080A02E1400E011826
:10388C0008E19151921104E0010E915F000E925BE0
:10389C001CD0C00E9315016E9451080B026E025091
:1038AC00080A02E1800E011810E1800E006E800EF5
:1038BC009219005C02E19151020805E2020E915F3F
:1038CC00000E925B02D0916B926B93A55DD093A38B
:1038DC0012D093A103D02D0E8A6F02D02B0E8A6FBB
:1038EC007FC4E1FF80C4E2FF8AC4E6FF7F4B802BDC
:1038FC009F4BA02B34D093A10BD07FC4E1FF80C48D
:10390C00E2FF200EE66E7F4B802B9F4BA02B27D027
:10391C00C00E9315016E9451080B026E0250080AEA
:10392C0002E1800E01181BE17FC4E1FF80C4E2FFBD
:10393C00300EE66E7F4B802B9F4BA02B93AB03D0AE
:10394C00580E8B6F02D0780E8B6F7FC4E1FF80C452
:10395C00E2FF8BC4E6FF7F4B802B9F4BA02B91513A
:10396C00921111E07FC4E1FF80C4E2FF300EE66EDD
:10397C007F4B802B9F4BA02B010E915F000E925B17
:10398C0091519211EFE174D09151921113E093B7D0
:10399C0011D07FC4E1FF80C4E2FF200EE66E7F4BA6
:1039AC00802B9F4BA02B010E915F000E925B9151CF
:1039BC009211EFE193A312D093A103D02D0E8C6F33
:1039CC0002D02B0E8C6F7FC4E1FF80C4E2FF8CC44D
:1039DC00E6FF7F4B802B9F4BA02B0CD093A10AD0E2
:1039EC007FC4E1FF80C4E2FF200EE66E7F4B802B8C
:1039FC009F4BA02BC00E9315016E9451080B026EB9
:103A0C000250080A02E1400E01180BE17FC4E1FFED
:103A1C0080C4E2FF300EE66E7F4B802B9F4BA02BB9
:103A2C0027D0C00E9315016E9451080B026E0250F4
:103A3C00080A02E1800E01181BE17FC4E1FF80C47B
:103A4C00E2FF300EE66E7F4B802B9F4BA02B93AB8F
:103A5C0003D0580E8D6F02D0780E8D6F7FC4E1FFAE
:103A6C0080C4E2FF8DC4E6FF7F4B802B9F4BA02BC5
:103A7C00800E006E800E8F19005C02E18E51905DFD
:103A8C000BE27FC4E1FF80C4E2FF300EE66E7F4B99
:103A9C00802B9F4BA02BECD78EC400F08FC401F071
:103AAC00010E8E5F000E8F5B00500110D8B42AD12E
:103ABC00C00E9315006E00C0A1F40AD18EC400F0A4
:103ACC008FC401F0000E8FBFFF0E026E036E003626
:103ADC00009001360236033600360090013602366D
:103AEC0003368E0E0024F66E670E0120F76E000E64
:103AFC000220F86E0900F5CF04F00900F5CF05F0AF
:103B0C000900F5CF06F00900F5CF07F09BC400F0D3
:103B1C009CC401F09DC402F09EC403F0D0EC05F0EF
:103B2C000A0E046E000E056E066E076ED0EC05F0E4
:103B3C0008C000F009C001F00AC002F00BC003F08D
:103B4C00300E0024906FD3D093AB45D08EC400F0D0
:103B5C008FC401F0000E8FBFFF0E026E036E003695
:103B6C0000900136023603360036009001360236DC
:103B7C000336B60E0024F66E670E0120F76E000EAB
:103B8C000220F86E0900F5CF04F00900F5CF05F01E
:103B9C000900F5CF06F00900F5CF07F09BC400F043
:103BAC009CC401F09DC402F09EC403F0D0EC05F05F
:103BBC000F0E0016000E011602160316430E0024FB
:103BCC00F66E680E0120F76E000E0220F86E0900EA
:103BDC00F5CF90F444D08EC400F08FC401F0000EE9
:103BEC008FBFFF0E026E036E003600900136023658
:103BFC00033600360090013602360336B60E00242A
:103C0C00F66E670E0120F76E000E0220F86E0900AA
:103C1C00F5CF04F00900F5CF05F00900F5CF06F05B
:103C2C000900F5CF07F09BC400F09CC401F09DC4C3
:103C3C0002F09EC403F0D0EC05F00F0E0016000E3F
:103C4C00011602160316540E0024F66E680E01209F
:103C5C00F76E000E0220F86E0900F5CF90F447D0F5
:103C6C008EC400F08FC401F0000E8FBFFF0E026EE9
:103C7C00036E003600900136023603360036009093
:103C8C000136023603365E0E0024F66E670E0120F6
:103C9C00F76E000E0220F86E0900F5CF04F0090053
:103CAC00F5CF05F00900F5CF06F00900F5CF07F0C8
:103CBC009BC400F09CC401F09DC402F09EC403F0B0
:103CCC00D0EC05F0070E0014906F300E90270FD03B
:103CDC00A151000AD8B4F2D6A151C00AD8B4EED67C
:103CEC00A151800AD8B430D7A151400AB9E07FC4A1
:103CFC00E1FF80C4E2FF90C4E6FF7F4B802B9F4B1B
:103D0C00A02BCAD693A71AD0800E006E800E9219E3
:103D1C00005C02E19151000811E27FC4E1FF80C414
:103D2C00E2FF200EE66E7F4B802B9F4BA02B010EEB
:103D3C00915F000E925B91519211EFE19BEF0EF0AF
:0A3D4C009FC400F0A0C401F01200B3
:103D56008B929E967FC4C9FF9EB601D0FDD79E96D4
:103D6600C9CF02F082C400F083C401F0010E040141
:103D7600825F000E835B005001100FE080C4E9FFF4
:103D860081C4EAFFEECFC9FF804B812B9EB601D0DE
:0E3D9600FDD79E96C9CF02F0E5D78B821200B2
:0E3DA400ACB202D00000FCD77FC4ADFF12000D
:103DB2006AC400F00032009E0032009E0032009E73
:103DC2000032009E860E0024F66E680EF76E000E1C
:103DD200F722000EF86E000EF8220900F5CF00F06F
:103DE2006BC4E1FF6CC4E2FF00C0E6FF010E0401F8
:103DF2006B25E16E000E6C21E26E0F0E6A15006EED
:103E0200860E0024F66E680EF76E000EF722000E84
:103E1200F86E000EF8220900F5CF00F000C0E6FFB0
:103E2200020E6B25E16E000E6C21E26EE66A120054
:103E32006F0E04017D6F040E7E6F6AC47FF46BC443
:103E420080F46CC481F46DC482F46EC483F47D0E7C
:103E5200846F040E856F96EC0EF000C07BF401C0F7
:103E62007CF400506A25E16E01506B21E26EE66A35
:0A3E72007BC400F07CC401F01200D4
:103E7C0004016D6B6AC4E9FF6BC4EAFFEECF6CF40E
:103E8C006C51000A0EE06CC47FF486DF04016D2BCC
:103E9C006D516A25E96E000E6B21EA6EEECF6CF463
:043EAC00EFD712003A
:103EB0008B929E966AC4C9FF9EB601D0FDD79E968E
:103EC000C9CF02F06DC400F06EC401F0010E040110
:103ED0006D5F000E6E5B005001100FE0C96A9EB668
:103EE00001D0FDD704019E966BC4E1FF6CC4E2FFD4
:0E3EF000C9CFE6FF6B4B6C2BE5D78B8212001F
:103EFE00E00E04016A15016E01C06CF4015003015D
:103F0E00DA1925E004016C51000A05E1C00EA76F15
:103F1E0012EC05F01AD004016C51200A05E1C20E14
:103F2E00A76F12EC05F011D004016C51400A05E1A7
:103F3E00C40EA76F12EC05F008D004016C51600A94
:103F4E0004E1C60EA76F12EC05F06CC4DAF31F0E77
:103F5E0004016A15006E800E0010A76F6BC4A8F4E2
:0A3F6E00000EA96FF2EC04F012003F
:103F7800320E04016F6F6AA302D02A0E6F6F6AA512
:103F880002D02E0E6F6F6FC47FF46BC480F46CC4C4
:0E3F980081F46DC482F46EC483F4D9DE12008D
:103FA6001C0E04017F6F3BEC0EF001A636D01C0EF2
:103FB60004017F6F000E806FFEEC0DF0420E0401CF
:103FC6007F6F3BEC0EF000C06AF401C06BF41A0E72
:103FD60004017F6F3BEC0EF001A40CD0440E0401EB
:103FE6007F6F150E806F000E816FAAEC0DF0040135
:103FF6006A810BD00401440E7F6F120E806F000E93
:10400600816FAAEC0DF004016A91420E7F6F6AC4BB
:1040160080F46BC481F4AAEC0DF01A0E04017F6FD4
:104026003BEC0EF000C098F301C099F301A0F5D760
:10403600D40E0401A76F12EC05F01E0E04017F6F6B
:104046003BEC0EF000C098F301C099F300B2F5D72F
:02405600120056
:10405800086A096A100E0C6E0134083609360450D5
:10406800085E0550D8A0053C095ED8B007D00450BA
:1040780008260550D8B0053C0926D89000360136E8
:064088000C2EEAD7120025
:08408E0036C400F0003A1200F4
:10409600300E04013B6F3651020A02E1280E3B6FD7
:1040A6003651040A02E12C0E3B6F3BC46AF437C456
:1040B6006BF438C46CF439C46DF43AC46EF4F5DEAE
:0240C6001200E6
:1040C800380E04016A6F040E6B6F300E6C6F680E49
:1040D8006D6F000E6E6F36C4E9FF37C4EAFFEECF8E
:1040E8006FF4000E706F010E3625E96E000E372151
:1040F800EA6EEECF71F4000E726F020E3625E96E8D
:10410800000E3721EA6EEECF73F4000E746F030EC3
:104118003625E96E000E3721EA6EEECF75F4000EF3
:0E412800766F83DE380E006E040E016E1200FC
:104136001E0E04017F6F3BEC0EF000B2F9D78C0E19
:1041460004017F6F806B816BAAEC0DF0040E0401F5
:104156006A6F36C46BF437C46CF438C46DF439C472
:104166006EF407DF04013A5316E07F6B806B816BB8
:10417600AAEC0DF0020E04017F6F38C480F439C436
:1041860081F4AAEC0DF01E0E04017F6F3BEC0EF0DD
:0841960000B2F9D705DF1200A9
:10419E00380E04016A6F040E6B6F130E6C6F680E8F
:1041AE006D6F000E6E6F36C4E9FF37C4EAFFEECFB7
:1041BE006FF4000E706F010E3625E96E000E37217A
:1041CE00EA6EEECF71F4000E726F020E3625E96EB6
:1041DE00000E3721EA6EEECF73F4000E746F030EED
:1041EE003625E96E000E3721EA6EEECF75F4000E1D
:1041FE00766F040E3625E96E000E3721EA6EEECF8D
:10420E0077F4000E786F050E3625E96E000E372115
:10421E00EA6EEECF79F4000E7A6F04DE380E006E81
:06422E00040E016E1200F7
:1042340004013A6B050E3A5D0AE23A513825E16E03
:10424400000E3921E26E200EE66E3A2BF3D73A5176
:104254003825E16E000E3921E26EE66A3A073A51DA
:1042640038253B6F000E39213C6F0A0E046E000E98
:10427400056E36C400F037C401F0ECDE08C000F06F
:1042840009C001F0300E00263BC4E1FF3CC4E2FF4C
:1042940000C0E6FF0A0E046E000E056E36C400F080
:1042A40037C401F0D7DE00C036F401C037F4000E85
:1042B400011802E1000E001801E102D03A07CFD73D
:0242C4001200E6
:1042C6001E0E04017F6F3BEC0EF000BAF9D71E0EEE
:1042D60004017F6F100E806FFEEC0DF01E0E0401C0
:1042E6007F6F040E806FFEEC0DF004013A5306E07A
:1042F6001E0E6A6F080E6B6FFFDD07D01E0E0401DF
:104306007F6F080E806FFEEC0DF00A0E04017F6FC2
:1043160036C480F437C481F4AAEC0DF00C0E040107
:104326007F6F38C480F439C481F4AAEC0DF01E0EF8
:1043360004016A6F200E6B6FDFDD1E0E04017F6FB6
:104346003BEC0EF000BAF9D7100E04017F6F3BEC80
:044356000EF0120053
:10435A00C30E04016A6F000E6B6F8BDD3F6B406BFF
:10436A003D6B3E6B39513E5D02E138513D5D29E2BC
:10437A003D513625E96E3E513721EA6EEECF6AF499
:10438A003A0E6B6F040E6C6F0FDD3A0E6A6F040EF5
:10439A006B6F6FDDC10E6A6F000E6B6F6ADD3F4B8C
:1043AA00402B000E401902E1100E3F1907E13F6B46
:1043BA00406BBB0E6A6F000E6B6F5BDD3D4B3E2B95
:0E43CA00D1D7BE0E6A6F000E6B6F53DD12006E
:1043D800046A045005082DE3045004013625E16EF3
:1043E800000E3721E26E060E3625006E000E3721CC
:1043F800016E04500024E96E000E0120EA6EEECF33
:10440800E6FF060E3625006E000E3721016E0450B9
:104418000024E16E000E0120E26E760EE96E030EB6
:10442800EA6E0450E926D8B0EA2AEECFE6FF042A5D
:10443800D0D7046A045003083DE304010E0E362564
:10444800026E000E3721036E100E0224006E000E5D
:104458000320016E04500024E16E000E0120E26E7C
:104468000C0E0224006E000E0320016E045000247E
:10447800E96E000E0120EA6EEECFE6FF0E0E36253D
:10448800006E000E3721016E0C0E0026000E012270
:1044980004500024E16E000E0120E26EA50EE96EC4
:1044A800000EEA6E0450E926D8B0EA2AEECFE6FFFD
:0644B800042AC0D7120027
:1044BE00900E04017F6F520E806F060E816FAAEC74
:1044CE000DF08E0E04017F6F520E806F060E816FFF
:1044DE00AAEC0DF0010E04016A6F36C46BF437C4FA
:0E44EE006CF438C46DF439C46EF43FDD120076
:1044FC00160E04017F6F340E806F120E816FAAECC2
:10450C000DF0160E04017F6F3BEC0EF00150120AF9
:10451C0002E1340E0018ECE1CA0E0401A76F12EC94
:10452C0005F00301DA6B1A0E04017F6F3BEC0EF001
:10453C00000E0014026E01501A0B036E03501A0A7F
:10454C0002E1000E021801E0EED74F0E0D6E0D2E9B
:10455C00FED700000000160E04017F6F3BEC0EF03E
:10456C00000E011802E1000E0018C2E10B0E0C6ED9
:10457C00620E0D6E0D2EFED70C2EFCD70000120015
:10458C00540E04017F6F000E0211806F000E0109A2
:10459C00816FAAEC0DF0660E04017F6F03C480F4EA
:1045AC00000E816FAAEC0DF06A0E04017F6F3BECDC
:0A45BC000EF000A001D0F8D71200A5
:1045C6000E0E04010225006E000E0321016E060E7A
:1045D6000024E16E000E0120E26E000EE66E020E71
:1045E600E66E056B0551050866E305510225E16E89
:1045F600000E0321E26E060E0225006E000E032158
:10460600016E05510024E96E000E0120EA6EEECF20
:10461600E6FF0E0E0225026E000E0321036E120E39
:104626000224006E000E0320016E05510024E16E87
:10463600000E0120E26E080E0224006E000E03201A
:10464600016E05510024E96E000E0120EA6EEECFE0
:10465600E6FF060E0225006E000E0321016E0551CF
:104666000024E16E000E0120E26E760EE96E030E66
:10467600EA6E0551E926D8B0EA2AEECFE6FF0E0E1D
:104686000225006E000E0321016E080E0026000EA4
:10469600012205510024E16E000E0120E26E760E25
:1046A600E96E030EEA6E0551E926D8B0EA2AEECF86
:1046B600E6FF052B97D7056B055103083CE30E0E65
:1046C6000225026E000E0321036E180E0224006EF0
:1046D600000E0320016E05510024E16E000E01203C
:1046E600E26E0E0E0224006E000E0320016E0551CE
:1046F6000024E96E000E0120EA6EEECFE6FF0E0EF4
:104706000225006E000E0321016E0E0E0026000E1D
:10471600012205510024E16E000E0120E26EA50E75
:10472600E96E000EEA6E0551E926D8B0EA2AEECF08
:10473600E6FF052BC1D702C436F403C437F42A0EAC
:0E474600386F000E396F010E3A6FF2DC120070
:104754008A0E04017F6F94C380F495C381F4AAEC9C
:104764000DF0040E0401366F040E376F040E386F1B
:10477400080E396F000E3A6F8CDC040E0301966F3D
:10478400040E976F96C3E9FF97C3EAFFEECF94F345
:10479400EECF95F3020E9625E96E000E9721EA6E90
:1047A400EECF01F0EECF02F001C002F402C003F438
:1047B400000E006E0250005C02E10150C80805E2E0
:1047C400C80E0401026F000E036F0401040E366F5D
:1047D400400E376F020E386F02C439F403C43AF442
:1047E40058DC060E7F6F96C3E9FF97C3EAFFEECF4E
:1047F40000F0EECF01F0020E005C806F000E015855
:10480400816FAAEC0DF0040E0401025F000E035B3D
:10481400CC0EA76F12EC05F0040E03019625E96E89
:10482400000E9721EA6EEECF00F000AE05D002C470
:0E48340000F003C401F002D0006A016A120015
:0C4842003A0E0D6E0D2EFED70000120085
:10484E0002C4E9FF03C4EAFFEE500001A51924E1FA
:10485E00010E04010225E96E000E0321EA6EEE50F0
:10486E000001A61919E1020E04010225E96E000EDF
:10487E000321EA6EEE500001A7190EE1030E0401AA
:10488E000225E96E000E0321EA6EEE500001A81912
:0C489E0003E1010E006E01D0006A120060
:1048AA000E0E04010225366F000E0321376F0C0E1F
:1048BA003627000E372303DC00C06FF401C070F402
:1048CA00040E6A6F040E6B6F760E6C6F680E6D6F56
:1048DA00000E6E6F19EC1FF0040E6A6F040E6B6FF8
:1048EA003EEC1FF00E0E0225366F000E0321376FC5
:1048FA00100E3627000E372364EC20F000C06FF448
:10490A0001C070F4040E6A6F040E6B6FA50E6C6F13
:10491A00680E6D6F000E6E6F19EC1FF0040E6A6F51
:10492A00040E6B6F3EEC1FF0060E0225366F000E6A
:10493A000321376F2FDC00C06FF401C070F4040E3E
:10494A006A6F040E6B6F650E6C6F680E6D6F000EEA
:10495A006E6F19EC1FF0040E6A6F040E6B6F3EEC5B
:10496A001FF002C436F403C437F414DC00C06FF439
:10497A0001C070F4040E6A6F040E6B6F960E6C6FB2
:10498A00680E6D6F000E6E6F19EC1FF0040E6A6FE1
:0A499A00040E6B6F3EEC1FF01200DC
:1049A40005C405F0066A076A086A04C403F003C470
:1049B40002F002C401F0006A000E0016000E011697
:1049C400FF0E0216000E03160050051201500612C7
:1049D400025007120350081203C400F004C401F08B
:1049E40005C402F0036A000E0016FF0E0116000E45
:1049F4000216031600500512015006120250071247
:104A04000350081202C403F0006A016A026A0550E6
:104A1400001206500112075002120850031200C07F
:104A240002F401C003F402C004F403C005F412004C
:104A34000401066B0651030838E306510225E16EB2
:104A4400000E0321E26E0E0E0425006E000E0521F9
:104A5400016E0C0E0026000E012206510024E96EA0
:104A6400000E0120EA6EEECFE6FF040E0225006E72
:104A7400000E0321016E06510024E16E000E012098
:104A8400E26E0E0E0425006E000E0521016E100E5E
:104A94000026000E012206510024E96E000E0120BA
:104AA400EA6EEECFE6FF062BC5D7080E0225E16EAF
:104AB400000E0321E26EE66A090E0225E16E000E85
:104AC4000321E26E110EE66E0A0E0225E16E000E5F
:104AD4000321E26E220E0425006E000E0521016EF4
:104AE400040E0024E96E000E0120EA6EEECFE6FF0C
:104AF400EECFE6FF02C436F403C437F40C0E386F6D
:104B0400000E396FDADC8D0E04016A6F010E6B6FD3
:104B14003EEC1FF0520E366F060E376F0C0E386FD8
:104B2400000E396F3A6B63EC21F000C007F401C04A
:104B340008F400C036F401C037F49A0E0401386F4B
:104B4400030E396F1AEC21F0A60E6A6F010E6B6F1B
:104B54003EEC1FF09A0E6A6F030E6B6F3EEC1FF073
:104B6400BB0E6A6F010E6B6F3EEC1FF007C400F0C2
:064B740008C401F012006C
:104B7A00A90E04016A6F000E6B6F3EEC1FF0220E45
:104B8A000225006E000E0321016E040E0024E96E58
:104B9A00000E0120EA6EEECF05F0EECF06F006C059
:104BAA0003F0046A05C001F0006A035000120450C1
:104BBA00011200C080F301C081F3080E005C076F88
:104BCA0002C436F403C437F402DC220E04010225BF
:104BDA00006E000E0321016E00C0E9FF01C0EAFF6A
:104BEA00EECF05F4EECF06F4020E0024E96E000EB5
:104BFA000120EA6E00C0E1FF01C0E2FFEECFE6FF4E
:104C0A00EECFE6FF220E0225006E000E0321016E92
:104C1A00020E0024E16E000E0120E26E05C4E6FFDA
:104C2A0006C4E6FF220E0225006E000E0321016E65
:104C3A00060E0024E16E000E0120E26EE66AE66AC4
:104C4A00086B0851075D2DE32A0E0225006E000E3F
:104C5A000321016E08510024E96E000E0120EA6E5C
:104C6A00610EEE5C1CE32A0E0225006E000E032183
:104C7A00016E08510024E96E000E0120EA6EEE5022
:104C8A007A080DE32A0E0225006E000E0321016E3A
:104C9A0008510024E16E000E0120E26EE69A082B0C
:104CAA00D0D72A0E0225006E000E0321016E07518D
:104CBA000024E16E000E0120E26EE66A02C436F4B8
:104CCA0003C437F404C438F4000E396F3A6B9BEC12
:104CDA0020F0220E04010225006E000E0321016E4F
:104CEA00060E0024096F000E01200A6F220E366F8D
:104CFA00000E376F80C338F481C339F4010E3A6F5E
:104D0A0063EC21F009C4E1FF0AC4E2FF00C0E6FF38
:104D1A0001C0E6FF02C436F403C437F404C438F40D
:104D2A00000E0401396FADEC21F002C436F403C45D
:104D3A0037F404C438F4000E396F010E3A6F9BEC55
:044D4A0020F0120043
:104D4E000E0E04010425006E000E0521016E020EEA
:104D5E000024E96E000E0120EA6EEECF05F0EECFD4
:104D6E0006F006C003F0046A05C001F0006A0050A8
:104D7E000310066E04500110076E220E0425006EFD
:104D8E00000E0521016E0C0E0024046E000E012093
:104D9E00056E04C0E9FF05C0EAFFEECF00F0F00E8D
:104DAE000014036E0332039E0332039E0332039EEE
:104DBE000332039E03C000F0000E016E0036013672
:104DCE000090003601360090140E0026000E0122CF
:104DDE000050065C026E01500758036E04C0E9FFD6
:104DEE0005C0EAFFEECF00F0F00E0014016E0132A6
:104DFE00019E0132019E0132019E0132019E01C0CF
:104E0E0007F4000E086F0737083707910737083782
:104E1E0007910250072703500823066B065103081B
:104E2E0038E306510225E16E000E0321E26E0E0EEE
:104E3E000425006E000E0521016E0C0E0026000EDC
:104E4E00012206510024E96E000E0120EA6EEECF1B
:104E5E00E6FF040E0225006E000E0321016E0651C0
:104E6E000024E16E000E0120E26E0E0E0425006E8F
:104E7E00000E0521016E100E0026000E01220651B5
:104E8E000024E96E000E0120EA6EEECFE6FF062B3F
:104E9E00C5D7080E0225E16E000E0321E26EE66A0A
:104EAE00090E0225E16E000E0321E26E060EE66E7D
:104EBE000A0E0225E16E000E0321E26E08C403F015
:104ECE00046A07C401F0006A035000120450011274
:104EDE0000C0E6FF01C0E6FF02C436F403C437F497
:104EEE000C0E386F000E396F5FEC22F0220E0401AB
:104EFE006A6F020E6B6F3EEC1FF0520E366F060E8F
:104F0E00376F0C0E386F000E396F3A6B63EC21F071
:024F1E0012007F
:104F200004C404F005C405F002C402F003C403F095
:104F300006C400F007C401F0010E0401065F000E74
:104F4000075B005001100FE004C0E9FF05C0EAFF55
:104F500002C0E1FF03C0E2FFEECFE6FF024A032AF0
:104F6000044A052AE5D702C400F003C401F0120088
:104F7000C10E04016A6F010E6B6F3EEC1FF0220E32
:104F80000225006E000E0321016E020E0024E96E60
:104F9000000E0120EA6EEECF01F0EECF02F00250DB
:104FA0008D0A02E1130E011837E1220E0225006E70
:104FB000000E0321016E040E0024E96E000E012094
:104FC000EA6EEECF36F447EC20F0080E005C026E7D
:104FD0002A0E0225006E000E0321016E02500024ED
:104FE000E16E000E0120E26EE66A2A0E02256A6F6B
:104FF000000E03216B6F3EEC1FF0BE0E6A6F010EB8
:105000006B6F3EEC1FF0D60E6A6F010E6B6F3EECBD
:0C5010001FF0010E006E01D0006A1200BB
:10501C0002C436F403C437F4ECEC21F0220E040184
:10502C000225006E000E0321016E00C0E9FF01C0D5
:10503C00EAFFEECF07F4EECF08F4020E0024E96E7F
:10504C00000E0120EA6E00C0E1FF01C0E2FFEECFCE
:10505C00E6FFEECFE6FF220E0225006E000E0321C6
:10506C00016E020E0024E16E000E0120E26E07C4F8
:10507C00E6FF08C4E6FF220E0225006E000E032197
:10508C00016E100E0024E16E000E0120E26EE66A45
:10509C00E66A02C436F403C437F404C438F4000ED0
:1050AC00396F3A6B9BEC20F0220E04010225006E46
:1050BC00000E0321016E100E0024096F000E01205A
:1050CC000A6F220E366F000E376F05C438F406C413
:1050DC0039F4010E3A6F63EC21F009C4E1FF0AC404
:1050EC00E2FF00C0E6FF01C0E6FF02C436F403C4D1
:1050FC0037F404C438F4000E0401396F010E3A6F12
:06510C009BEC20F01200F4
:10511200C26A070EC012C08EE9C300F000360090CA
:10512200003600900050C212C28021EC24F0C282EC
:10513200C2A201D0FDD7C4CF01F0006AC350001251
:08514200000E0112C2901200E0
:10514A000900F5CFE6FF0006FBE10106F9E11200CE
:10515A00A40E03018E6F3D0E8F6F7F0E906F040EAB
:10516A00916FFF0E8A6FFF0E8B6F000E8C6F000E11
:10517A008D6FFF0E826FFF0E836F000E846F000E1D
:10518A00856FFF0E866FFF0E876F000E886F000E09
:10519A00896FAC8A900EAB6E948E949C9EAA03D0B3
:0851AA00AECF00F0FBD71200AC
:1051B2008B829492949A94969488C66A400EC76E93
:1051C200200EC66E9E967EEC22F0640E04017F6F66
:1051D2003BEC0EF000C098F301C099F3FF0E0014EF
:1051E2000301766F01C002F0036AFF0E0214776FAB
:1051F200620E04017F6F3BEC0EF000C098F301C019
:1052020099F3FF0E00140301786F01C002F0036AE4
:10521200FF0E0214796F600E04017F6F3BEC0EF0FB
:1052220000C098F301C099F3FF0E001403017A6FD6
:1052320001C002F0036AFF0E02147B6F400E946FEE
:10524200530E956F04017F6B806B816BAAEC0DF09E
:10525200040E04017F6F400E806F530E816FAAEC23
:105262000DF08A0E04017F6F400E806F530E816F26
:10527200AAEC0DF0060E04017F6FFD0E806F5F0E2B
:10528200816FAAEC0DF0040E0401026FE10E036FB0
:10529200C6EC22F0E80E0401A76F12EC05F0120032
:1052A200900E04016A6F000E6B6F3EEC1FF0220E2F
:1052B2000301E925006E000EEA21016E020E0024B0
:1052C200E96E000E0120EA6EEECF01F0EECF02F0A1
:1052D20002508D0A02E1130E0118D8A4CDEF2DF071
:1052E2002E0E04016A6F000E6B6F3EEC1FF0400E33
:1052F2000301E96F020EEA6F220EE925006E000E2D
:10530200EA21016E080E0024E96E000E0120EA6E09
:10531200EECF02F4EECF03F4EECF04F4EECF05F4B9
:10532200D2EC24F000C004F201C005F202C006F281
:1053320003C007F2220EE925006E000EEA21016E7B
:10534200040E0024E96E000E0120EA6EEECF02F494
:10535200EECF03F4EECF04F4EECF05F4D2EC24F05A
:1053620000C01EF201C01FF202C020F203C021F2EF
:10537200A40EEC6F030EED6FECC302F4EDC303F465
:10538200E9C304F4EAC305F4E1DC220E0301E925D2
:10539200006E000EEA21016E0D0E0024026E000E58
:1053A2000120036E02C0E9FF03C0EAFFEECF00F066
:1053B20000C03FF202C0E1FF03C0E2FFE66A020161
:1053C2003F51020AD8A4D2D0150E04016A6F000E12
:1053D2006B6F3EEC1FF0220E0301E925006E000EFA
:1053E200EA21016E040E0024E96E000E0120EA6E2D
:1053F200EECF00F0EECF01F0EECF02F0EECF03F0F1
:1054020000C03BF201C03CF202C03DF203C03EF2DA
:1054120000C002F401C003F402C004F403C005F4A6
:10542200D2EC24F000C03BF201C03CF202C03DF2DB
:1054320003C03EF2010E0026000E012202220322C8
:1054420000C03BF201C03CF202C03DF203C03EF29A
:1054520000C002F401C003F402C004F403C005F466
:10546200D2EC24F000C03BF201C03CF202C03DF29B
:1054720003C03EF2220EE925046E000EEA21056EFB
:10548200080E0424E16E000E0520E26E00C0E6FF65
:1054920001C0E6FF02C0E6FF03C0E6FF220EE925D7
:1054A200006E000EEA21016E040E0024E16E000E71
:1054B2000120E26E120EE66E340EE66E560EE66EB7
:1054C200780EE66E220EE925006E000EEA21016ECC
:1054D2000D0E0024E16E000E0120E26EE682220E25
:1054E200E925006E000EEA21016E0D0E0024E16E28
:1054F200000E0120E26EE688220EE925006E000E03
:10550200EA21016E0C0E0024E96E000E0120EA6E03
:10551200EECF00F0F00E0014036E0332039E03324E
:10552200039E0332039E0332039E03C000F0000E6B
:10553200016E00360136009000360136009000C040
:10554200D8F301C0D9F3E9C302F4EAC303F4D6C322
:1055520004F400C005F401C006F45FDD4D0E040141
:105562006A6F000E6B6F3EEC1FF016D302013F51C3
:10557200180AD8A434D2730E04016A6F000E6B6F3E
:105582003EEC1FF00E0E0301E925006E000EEA212B
:10559200016E020E0024E96E000E0120EA6EEECFCB
:1055A20005F0EECF06F006C003F0046A05C001F074
:1055B200006A00500310056E04500110066E220EA0
:1055C200E925006E000EEA21016E0C0E0024E96E40
:1055D200000E0120EA6EEECF00F0F00E0014036E12
:1055E2000332039E0332039E0332039E0332039E61
:1055F20003C000F0000E016E003601360090003646
:1056020001360090140E0026000E01220050055CA7
:10561200006E01500658016E00C06CF301C06DF3BC
:1056220000500110D8B463D1220EE925006E000E9D
:10563200EA21016E040E0024E96E000E0120EA6EDA
:10564200EECF00F0EECF01F0EECF02F0EECF03F09E
:1056520000C03BF201C03CF202C03DF203C03EF288
:1056620000C002F401C003F402C004F403C005F454
:10567200D2EC24F000C03BF201C03CF202C03DF289
:1056820003C03EF26C5100266D510122000E02222F
:10569200032200C03BF201C03CF202C03DF203C053
:1056A2003EF200C002F401C003F402C004F403C0DD
:1056B20005F4D2EC24F000C03BF201C03CF202C07F
:1056C2003DF203C03EF2EE0E04016A6F030E6B6FF1
:1056D200B30E6C6F680E6D6F000E6E6F04C26FF4C6
:1056E20005C270F406C271F407C272F419EC1FF01D
:1056F200690E6A6F000E6B6F3EEC1FF0EE0E6A6F62
:10570200030E6B6F3EEC1FF0630E6A6F000E6B6F41
:105712003EEC1FF0220E0301E925006E000EEA2185
:10572200016E040E0024E16E000E0120E26E080EEE
:105732000024E96E000E0120EA6EEECFE6FFEECF06
:10574200E6FFEECFE6FFEECFE6FF220EE925006E82
:10575200000EEA21016E080E0024E16E000E012007
:10576200E26E3BC2E6FF3CC2E6FF3DC2E6FF3EC23E
:10577200E6FF220EE925006E000EEA21016E0D0EF3
:105782000024E16E000E0120E26EE688660E04013E
:105792006A6F000E6B6F3EEC1FF0360E0301E925B7
:1057A20004016A6F000E0301EA2104016B6F3EECF3
:1057B2001FF03F0E6A6F010E6B6F3EEC1FF003018C
:1057C200EB6B000E6D5D02E1EB516C5D2DE3360E6D
:1057D200E925006E000EEA21016EEB510024E96E0C
:1057E200000E0120EA6EEE5061081CE2360EE92539
:1057F200006E000EEA21016EEB510024E96E000EEC
:105802000120EA6E7A0EEE5C0DE2360EE925006E9C
:10581200000EEA21016EEB510024E16E000E012020
:10582200E26EE69AEB2BCDD7360EE925006E000E1E
:10583200EA21016E6C510024E16E6D510120E26E8D
:10584200E66A360EE92504016A6F000E0301EA21B9
:1058520004016B6F3EEC1FF0220E0301E925006E7E
:10586200000EEA21016E0C0E0024E96E000E0120EA
:10587200EA6EEECF00F0F00E0014016E0132019ECE
:105882000132019E0132019E0132019E01C0D8F314
:10589200000ED96FD837D937D891D837D937D891A0
:1058A200A40EEC6F030EED6FECC302F4EDC303F430
:1058B200E9C304F4EAC305F4A7EC26F0E9C302F451
:1058C200EAC303F4D6C304F403016C51D8250401DE
:1058D200056F03016D51D9210401066F0EEC28F00A
:1058E200420E04016A6F010E6B6F3EEC1FF0040161
:1058F200310E6A6F010E6B6F3EEC1FF0220E030138
:10590200E925006E000EEA21016E020E0024E96E06
:10591200000E0120EA6EEECF1CF2EECF1DF26E0EEB
:105922000401026F030E036FE9C304F4EAC305F432
:10593200060E066F000E076F90EC27F07C0E026FCA
:10594200030E036F0E0E0301E9250401046F000E1E
:105952000301EA210401056F100E0427000E05233E
:10596200040E066F000E076F90EC27F07C0E366F68
:10597200030E376F64EC20F000C06FF401C070F4C6
:10598200EE0E6A6F030E6B6FF50E6C6F670E6D6F26
:10599200000E6E6F19EC1FF0EE0E6A6F030E6B6F46
:1059A2003EEC1FF06E0E366F030E376FCFEC20F019
:1059B20000C06FF401C070F4EE0E6A6F030E6B6FDD
:1059C200D60E6C6F670E6D6F000E6E6F19EC1FF0C6
:1059D200EE0E6A6F030E6B6F3EEC1FF0DDD002011C
:1059E2003F51110AD8A4D8D0F80E04016A6F000EF4
:1059F2006B6F3EEC1FF0220E0301E925006E000ED4
:105A0200EA21016E040E0024E96E000E0120EA6E06
:105A1200EECF00F0EECF01F0EECF02F0EECF03F0CA
:105A220000C03BF201C03CF202C03DF203C03EF2B4
:105A320000C002F401C003F402C004F403C005F480
:105A4200D2EC24F000C03BF201C03CF202C03DF2B5
:105A520003C03EF2010E0026000E012202220322A2
:105A620000C03BF201C03CF202C03DF203C03EF274
